:020000040800F2
:100000000000022011790008956E0008976E000824
:10001000996E00089B6E00089D6E000800000000AD
:100020000000000000000000000000008114000833
:100030009F6E00080000000021150008A16E000856
:100040006179000861790008617900086179000828
:100050006179000861790008617900086179000818
:100060006179000861790008617900086179000808
:1000700061790008617900086179000861790008F8
:1000800061790008617900086179000800000000CA
:10009000000000000000000000000000617900087E
:1000A000B56E0008CD6E0008E56E0008FD6E000814
:1000B0000D6F00081D6F00082D6F000861790008A2
:1000C00061790008617900086179000861790008A8
:1000D000617900083D6F00086179000800000000A8
:1000E000617900086179000861790008000000006A
:1000F000000000000000000000000000617900081E
:1001000000000000617900084D6F00086179000867
:1001100000000000000000000000000000000000DF
:100120006179000861790008617900086179000847
:1001300061790008000000000000000000000000DD
:1001400000000000000000000000000061790008CD
:100150006179000861790008617900085D6F000825
:1001600061790008617900080000000000000000CB
:10017000000000000000000000000000000000007F
:10018000000000006179000800000000000000008D
:080190006179000861790008A3
:1001C00010B5054C237833B9044B13B10448AFF391
:1001D00000800123237010BDC00900200000000032
:1001E0001CFB000808B5034B1BB103490348AFF3E0
:1001F000008008BD00000000C40900201CFB0008AE
:1002000081F0004102E000BF83F0004330B54FEAC7
:1002100041044FEA430594EA050F08BF90EA020F34
:100220001FBF54EA000C55EA020C7FEA645C7FEAC7
:10023000655C00F0E2804FEA5454D4EB5555B8BFEA
:100240006D420CDD2C4480EA020281EA030382EA5B
:10025000000083EA010180EA020281EA0303362DED
:1002600088BF30BD11F0004F4FEA01314FF4801CC0
:100270004CEA113102D0404261EB410113F0004FD2
:100280004FEA03334CEA133302D0524263EB430389
:1002900094EA050F00F0A780A4F10104D5F1200E27
:1002A0000DDB02FA0EFC22FA05F2801841F1000182
:1002B00003FA0EF2801843FA05F359410EE0A5F156
:1002C00020050EF1200E012A03FA0EFC28BF4CF087
:1002D000020C43FA05F3C01851EBE37101F000453D
:1002E00007D54FF0000EDCF1000C7EEB00006EEB4A
:1002F0000101B1F5801F1BD3B1F5001F0CD34908D4
:100300005FEA30004FEA3C0C04F101044FEA44522A
:1003100012F5800F80F09A80BCF1004F08BF5FEAB1
:10032000500C50F1000041EB045141EA050130BD91
:100330005FEA4C0C404141EB0101013C28BFB1F5A3
:10034000801FE9D291F0000F04BF01460020B1FAEE
:1003500081F308BF2033A3F10B03B3F120020CDAC1
:100360000C3208DD02F1140CC2F10C0201FA0CF09F
:1003700021FA02F10CE002F11402D8BFC2F1200C04
:1003800001FA02F120FA0CFCDCBF41EA0C019040BA
:10039000E41AA2BF01EB0451294330BD6FEA040403
:1003A0001F3C1CDA0C340EDC04F11404C4F12002EE
:1003B00020FA04F001FA02F340EA030021FA04F300
:1003C00045EA030130BDC4F10C04C4F1200220FA57
:1003D00002F001FA04F340EA0300294630BD21FA95
:1003E00004F0294630BD94F0000F83F4801306BF5B
:1003F00081F480110134013D4EE77FEA645C18BF4F
:100400007FEA655C29D094EA050F08BF90EA020FE5
:1004100005D054EA000C04BF1946104630BD91EADD
:10042000030F1EBF0021002030BD5FEA545C05D1E0
:100430004000494128BF41F0004130BD14F580041F
:100440003CBF01F5801130BD01F0004545F0FE4193
:1004500041F470014FF0000030BD7FEA645C1ABFC8
:10046000194610467FEA655C1CBF0B46024650EAFF
:10047000013406BF52EA033591EA030F41F400212B
:1004800030BD00BF90F0000F04BF0021704730B5B1
:100490004FF4806404F132044FF000054FF0000186
:1004A00050E700BF90F0000F04BF0021704730B547
:1004B0004FF4806404F1320410F0004548BF40421C
:1004C0004FF000013EE700BF42004FEAE2014FEA71
:1004D00031014FEA02701FBF12F07F4393F07F4F4C
:1004E00081F06051704732F07F4208BF704793F04F
:1004F0007F4F04BF41F40021704730B54FF4607462
:1005000001F0004521F000411CE700BF50EA010264
:1005100008BF704730B54FF000050AE050EA01020D
:1005200008BF704730B511F0004502D5404261EB7D
:1005300041014FF4806404F132045FEA915C3FF4BE
:10054000D8AE4FF003025FEADC0C18BF03325FEA5B
:10055000DC0C18BF033202EBDC02C2F1200300FA0C
:1005600003FC20FA02F001FA03FE40EA0E0021FA31
:1005700002F11444BDE600BF70B54FF0FF0C4CF41F
:10058000E06C1CEA11541DBF1CEA135594EA0C0FD1
:1005900095EA0C0F00F0DEF82C4481EA030621EA0C
:1005A0004C5123EA4C5350EA013518BF52EA033547
:1005B00041F4801143F4801338D0A0FB02CE4FF0F9
:1005C0000005E1FB02E506F00042E0FB03E54FF029
:1005D0000006E1FB03569CF0000F18BF4EF0010E21
:1005E000A4F1FF04B6F5007F64F5407404D25FEA1D
:1005F0004E0E6D4146EB060642EAC62141EA5551D0
:100600004FEAC52040EA5E504FEACE2EB4F1FD0C11
:1006100088BFBCF5E06F1ED8BEF1004F08BF5FEA8F
:10062000500E50F1000041EB045170BD06F0004641
:1006300046EA010140EA020081EA0301B4EB5C04EE
:10064000C2BFD4EB0C0541EA045170BD41F48011E6
:100650004FF0000E013C00F3AB8014F1360FDEBF0B
:10066000002001F0004170BDC4F10004203C35DAE7
:100670000C341BDC04F11404C4F1200500FA05F36A
:1006800020FA04F001FA05F240EA020001F000420B
:1006900021F0004110EBD37021FA04F642EB060181
:1006A0005EEA430E08BF20EAD37070BDC4F10C04AB
:1006B000C4F1200500FA04F320FA05F001FA04F26F
:1006C00040EA020001F0004110EBD37041F100015B
:1006D0005EEA430E08BF20EAD37070BDC4F1200566
:1006E00000FA05F24EEA020E20FA04F301FA05F2CE
:1006F00043EA020321FA04F001F0004121FA04F276
:1007000020EA020000EBD3705EEA430E08BF20EA45
:10071000D37070BD94F0000F0FD101F0004640007F
:1007200041EB010111F4801F08BF013CF7D041EA01
:10073000060195F0000F18BF704703F00046520005
:1007400043EB030313F4801F08BF013DF7D043EAD6
:100750000603704794EA0C0F0CEA135518BF95EA8C
:100760000C0F0CD050EA410618BF52EA4306D1D113
:1007700081EA030101F000414FF0000070BD50EA32
:10078000410606BF1046194652EA430619D094EABC
:100790000C0F02D150EA013613D195EA0C0F05D1A6
:1007A00052EA03361CBF104619460AD181EA0301FA
:1007B00001F0004141F0FE4141F470014FF00000B2
:1007C00070BD41F0FE4141F4780170BD70B54FF04D
:1007D000FF0C4CF4E06C1CEA11541DBF1CEA1355CD
:1007E00094EA0C0F95EA0C0F00F0A7F8A4EB0504AF
:1007F00081EA030E52EA03354FEA013100F08880A6
:100800004FEA03334FF0805545EA131343EA12636E
:100810004FEA022245EA111545EA10654FEA002623
:100820000EF000419D4208BF964244F1FD0404F5DC
:10083000407402D25B084FEA3202B61A65EB030538
:100840005B084FEA32024FF480104FF4002CB6EBF5
:10085000020E75EB030E22BFB61A754640EA0C0075
:100860005B084FEA3202B6EB020E75EB030E22BFB5
:10087000B61A754640EA5C005B084FEA3202B6EBF6
:10088000020E75EB030E22BFB61A754640EA9C00B5
:100890005B084FEA3202B6EB020E75EB030E22BF85
:1008A000B61A754640EADC0055EA060E18D04FEA43
:1008B000051545EA16754FEA06164FEAC30343EAE3
:1008C00052734FEAC2025FEA1C1CC0D111F4801FB0
:1008D0000BD141EA00014FF000004FF0004CB6E7A9
:1008E00011F4801F04BF01430020B4F1FD0C88BF48
:1008F000BCF5E06F3FF6AFAEB5EB030C04BFB6EB53
:10090000020C5FEA500C50F1000041EB045170BD45
:100910000EF0004E4EEA113114EB5C04C2BFD4EB72
:100920000C0541EA045170BD41F480114FF0000EF6
:10093000013C90E645EA060E8DE60CEA135594EA72
:100940000C0F08BF95EA0C0F3FF43BAF94EA0C0F75
:100950000AD150EA01347FF434AF95EA0C0F7FF4EA
:1009600025AF104619462CE795EA0C0F06D152EA3E
:1009700003353FF4FDAE1046194622E750EA410622
:1009800018BF52EA43067FF4C5AE50EA41047FF433
:100990000DAF52EA43057FF4EBAE12E74FF0FF3C98
:1009A00006E000BF4FF0010C02E000BF4FF0010C69
:1009B0004DF804CD4FEA410C7FEA6C5C4FEA430CE2
:1009C00018BF7FEA6C5C1BD001B050EA410C0CBF31
:1009D00052EA430C91EA030F02BF90EA020F002093
:1009E000704710F1000F91EA030F58BF994208BFFA
:1009F00090422CBFD8176FEAE37040F001007047B7
:100A00004FEA410C7FEA6C5C02D150EA013C07D10D
:100A10004FEA430C7FEA6C5CD6D152EA033CD3D058
:100A20005DF8040B704700BF8446104662468C4652
:100A30001946634600E000BF01B5FFF7B7FF002885
:100A400048BF10F1000F01BD4DF808EDFFF7F4FFAE
:100A50000CBF012000205DF808FB00BF4DF808ED39
:100A6000FFF7EAFF34BF012000205DF808FB00BF5C
:100A70004DF808EDFFF7E0FF94BF012000205DF87E
:100A800008FB00BF4DF808EDFFF7CEFF94BF012033
:100A900000205DF808FB00BF4DF808EDFFF7C4FF2C
:100AA00034BF012000205DF808FB00BF4FEA41027F
:100AB00012F5001215D211D56FF47873B3EB6252B0
:100AC00012D94FEAC12343F0004343EA505311F0D7
:100AD000004F23FA02F018BF404270474FF0000069
:100AE000704750EA013005D111F0004008BF6FF0A7
:100AF000004070474FF00000704700BF4FEA4102CE
:100B0000B2F1E04324BFB3F5001CDCF1FE5C0DD96B
:100B100001F0004C4FEAC0024CEA5070B2F1004FB5
:100B200040EB830008BF20F00100704711F0804FB8
:100B300021D113F13872BCBF01F00040704741F47D
:100B400080114FEA5252C2F11802C2F1200C10FA81
:100B50000CF320FA02F018BF40F001004FEAC12365
:100B60004FEAD32303FA0CFC40EA0C0023FA02F309
:100B70004FEA4303CCE77FEA625307D150EA0133DF
:100B80001EBF4FF0FE4040F44000704701F00040AF
:100B900040F0FE4040F40000704700BF53B94AB92E
:100BA000002908BF00281CBF4FF0FF314FF0FF3075
:100BB00000F074B9ADF1080C6DE904CE00F006F850
:100BC000DDF804E0DDE9022304B070472DE9F047C9
:100BD000089D04468E46002B4DD18A42944669D921
:100BE000B2FA82F252B101FA02F3C2F1200120FA04
:100BF00001F10CFA02FC41EA030E94404FEA1C4852
:100C0000210CBEFBF8F61FFA8CF708FB16E341EA4D
:100C1000034306FB07F199420AD91CEB030306F1D3
:100C2000FF3080F01F81994240F21C81023E6344F4
:100C30005B1AA4B2B3FBF8F008FB103344EA034498
:100C400000FB07F7A7420AD91CEB040400F1FF33AD
:100C500080F00A81A74240F207816444023840EAEA
:100C60000640E41B00261DB1D4400023C5E9004323
:100C70003146BDE8F0878B4209D9002D00F0EF80A6
:100C80000026C5E9000130463146BDE8F087B3FAD9
:100C900083F6002E4AD18B4202D3824200F2F980C1
:100CA000841A61EB030301209E46002DE0D0C5E9C4
:100CB000004EDDE702B9FFDEB2FA82F2002A40F010
:100CC0009280A1EB0C014FEA1C471FFA8CFE012613
:100CD000200CB1FBF7F307FB131140EA01410EFBB7
:100CE00003F0884208D91CEB010103F1FF3802D25E
:100CF000884200F2CB804346091AA4B2B1FBF7F058
:100D000007FB101144EA01440EFB00FEA64508D97A
:100D10001CEB040400F1FF3102D2A64500F2BB80B7
:100D20000846A4EB0E0440EA03409CE7C6F1200706
:100D3000B34022FA07FC4CEA030C20FA07F401FA4C
:100D400006F31C43F9404FEA1C4900FA06F3B1FBD5
:100D5000F9F8200C1FFA8CFE09FB181140EA01413A
:100D600008FB0EF0884202FA06F20BD91CEB0101D7
:100D700008F1FF3A80F08880884240F28580A8F12F
:100D800002086144091AA4B2B1FBF9F009FB101181
:100D900044EA014100FB0EFE8E4508D91CEB01011F
:100DA00000F1FF346CD28E456AD90238614440EAC2
:100DB0000840A0FB0294A1EB0E01A142C846A64642
:100DC00056D353D05DB1B3EB080261EB0E0101FACB
:100DD00007F722FA06F3F1401F43C5E90071002628
:100DE0003146BDE8F087C2F12003D8400CFA02FC7E
:100DF00021FA03F3914001434FEA1C471FFA8CFE8E
:100E0000B3FBF7F007FB10360B0C43EA064300FB7D
:100E10000EF69E4204FA02F408D91CEB030300F11B
:100E2000FF382FD29E422DD9023863449B1B89B2D2
:100E3000B3FBF7F607FB163341EA034106FB0EF35B
:100E40008B4208D91CEB010106F1FF3816D28B4208
:100E500014D9023E6144C91A46EA004638E72E46D4
:100E6000284605E70646E3E61846F8E64B45A9D2CC
:100E7000B9EB020864EB0C0E0138A3E74646EAE73B
:100E8000204694E74046D1E7D0467BE7023B6144E9
:100E900032E7304609E76444023842E7704700BF52
:100EA000844641EA000313F003036DD1403A41D375
:100EB00051F8043B40F8043B51F8043B40F8043B34
:100EC00051F8043B40F8043B51F8043B40F8043B24
:100ED00051F8043B40F8043B51F8043B40F8043B14
:100EE00051F8043B40F8043B51F8043B40F8043B04
:100EF00051F8043B40F8043B51F8043B40F8043BF4
:100F000051F8043B40F8043B51F8043B40F8043BE3
:100F100051F8043B40F8043B51F8043B40F8043BD3
:100F200051F8043B40F8043B51F8043B40F8043BC3
:100F3000403ABDD2303211D351F8043B40F8043B63
:100F400051F8043B40F8043B51F8043B40F8043BA3
:100F500051F8043B40F8043B103AEDD20C3205D373
:100F600051F8043B40F8043B043AF9D2043208D06B
:100F7000D2071CBF11F8013B00F8013B01D30B88DD
:100F800003806046704700BF082A13D38B078DD0BB
:100F900010F003038AD0C3F10403D21ADB071CBF8D
:100FA00011F8013B00F8013B80D331F8023B20F8F7
:100FB000023B7BE7043AD9D3013A11F8013B00F830
:100FC000013BF9D20B7803704B7843708B788370B8
:100FD00060467047000000000000000000000000B4
:100FE0000000000000000000000000000000000001
:100FF00000000000000000000000000000000000F1
:1010000090F800F06DE9024520F007016FF0000C48
:1010100010F0070491F820F040F049804FF00004F0
:101020006FF00700D1E9002391F840F000F10800CB
:1010300082FA4CF2A4FA8CF283FA4CF3A2FA8CF303
:101040004BBBD1E9022382FA4CF200F10800A4FA6A
:101050008CF283FA4CF3A2FA8CF3E3B9D1E90423BE
:1010600082FA4CF200F10800A4FA8CF283FA4CF3F5
:10107000A2FA8CF37BB9D1E9062301F1200182FAAF
:101080004CF200F10800A4FA8CF283FA4CF3A2FAB5
:101090008CF3002BC6D0002A04BF04301A4612BAC3
:1010A000B2FA82F2FDE8024500EBD2007047D1E9C6
:1010B000002304F00305C4F100004FEAC50514F055
:1010C000040F91F840F00CFA05F562EA05021CBF26
:1010D00063EA050362464FF00004A9E70000000040
:1010E00001F0FF01102A2BDB10F0070F08D010F8D9
:1010F000013B013A8B422DD010F0070F42B3F6D1DD
:10110000F0B441EA012141EA014122F007047FF0F5
:1011100000070023F0E80256083C85EA010586EA4C
:10112000010685FA47F5A3FA87F586FA47F6A5FA88
:1011300087F68EB9EED1F0BC01F0FF0102F0070294
:1011400032B110F8013B013A83EA010313B1F8D13F
:101150000020704701387047002D06BF3546033820
:10116000073815F0010F07D1013015F4807F02BF59
:10117000013015F4C03F0130F0BC0138704700BFAA
:101180004FEA410C7FEA6C5C02D150EA013C0AD183
:101190004FEA430C7FEA6C5C02D152EA033C02D175
:1011A0004FF0000070474FF001007047104A12F0F6
:1011B000070F1AD0D11D21F00701C1F59633134452
:1011C0000A460C480260002141601344083B23F0AA
:1011D00007030948036059601960991A5160136048
:1011E000064B1960064B196070474FF49633E8E7D9
:1011F000E0090020F0350120DC090020E435012061
:10120000E0350120164B1A461B688342FBD3516818
:1012100002EB010C844509D0416800EB010C6345E9
:1012200009D00360904219D01060704740680144B3
:1012300051601046F0E710B40A4C2468A3420BD06A
:101240005B681944416013681B680360904200D0DA
:1012500010605DF8044B70470460F7E7704700BF0B
:10126000F0350120DC09002070B5054600F0F8FEDD
:10127000364B1B689BB13DB105F00703C3F110036A
:10128000DA43AA420ED31D44002D47DB002D47D080
:101290002F4B1B68AB4252D32E4A146806E0FFF76F
:1012A00085FFE8E70025EFE722461C466368AB426E
:1012B00002D22368002BF7D1244B1B68A34240D0F5
:1012C000166808362368136063685B1B102B10D9FF
:1012D000601910F0070F08D04FF0500383F3118806
:1012E000BFF36F8FBFF34F8FFEE743606560FFF77B
:1012F00089FF626816490B689B1A0B6016490968DA
:101300008B4201D214490B6042F00042626000231C
:101310002360124A13680133136002E0002600E0E4
:10132000002600F067FF16F0070F0CD04FF05003B7
:1013300083F31188BFF36F8FBFF34F8FFEE7002653
:10134000EFE70026EDE7304670BD00BFDC09002066
:10135000E0350120F0350120E4350120E835012099
:10136000A8B338B50446A0F1080550F8043C002B9A
:1013700008DB4FF0500383F31188BFF36F8FBFF387
:101380004F8FFEE750F8082C42B14FF0500383F323
:101390001188BFF36F8FBFF34F8FFEE7002B00DB89
:1013A00038BD23F0004340F8043C00F059FE54F8E7
:1013B000041C074A13680B4413602846FFF722FFFA
:1013C000044A13680133136000F014FFE8E7704724
:1013D000E0350120EC35012082B0002301930D4B54
:1013E0001B68B3F1FF3F08D04FF0500383F311881F
:1013F000BFF36F8FBFF34F8FFEE74FF0500383F3C0
:101400001188BFF36F8FBFF34F8F019B002BFCD070
:1014100002B070470000002008480068006880F3B0
:1014200008884FF0000080F3148862B661B6BFF3FD
:101430004F8FBFF36F8F00DF00BF000008ED00E0AB
:10144000DFF80C00016841F4700101607047000092
:1014500088ED00E04FF0807340F8043C21F001017A
:1014600040F8081C054B40F80C3C40F8202C6FF06D
:10147000020340F8243C4438704700BFD9130008E9
:10148000074B19680868B0E8F04F80F30988BFF38C
:101490006F8F4FF0000080F311887047AFF300802A
:1014A000403601204FF0500383F31188BFF36F8F54
:1014B000BFF34F8F0B4A136801331360012B00D029
:1014C00070474FF0E023D3F8043D13F0FF0FF7D03F
:1014D0004FF0500383F31188BFF36F8FBFF34F8F2B
:1014E000FEE700BF00000020094B1B6843B94FF026
:1014F000500383F31188BFF36F8FBFF34F8FFEE765
:10150000013B034A13600BB983F31188704700BF96
:1015100000000020000000000000000000000000AB
:10152000EFF30980BFF36F8F154B1A681EF0100F91
:1015300008BF20ED108A20E9F04F10602DE9090066
:101540004FF0500080F31188BFF34F8FBFF36F8FC0
:1015500000F074FF4FF0000080F3118809BC196897
:101560000868B0E8F04F1EF0100F08BFB0EC108A0A
:1015700080F30988BFF36F8F704700BFAFF300801F
:101580004036012008B54FF0500383F31188BFF3B4
:101590006F8FBFF34F8F00F071FD28B14FF0E02344
:1015A0004FF08052C3F8042D002383F3118808BD47
:1015B0004FF0E022002313619361054B1B6805493E
:1015C000A1FB03139B09013B536107231361704780
:1015D00010000020D34D62104FF0E023D3F8002D0F
:1015E0003D4B9A421CD04FF0E023D3F8002D3B4BEB
:1015F0009A421ED030B583B0394B1A78D2B20192DC
:10160000FF221A701B78DBB28DF803309DF803308F
:1016100003F05003334A1370334B07221A601BE068
:101620004FF0500383F31188BFF36F8FBFF34F8FD9
:10163000FEE74FF0500383F31188BFF36F8FBFF3C2
:101640004F8FFEE7284A1368013B13609DF8033073
:101650005B00DBB28DF803309DF8033013F0800F90
:10166000F0D1214B1B68032B08D04FF0500383F3BC
:101670001188BFF36F8FBFF34F8FFEE71B021A4A2B
:10168000136003F4E0631360019BDBB2144A137030
:101690004FF0E024D4F8203D43F47003C4F8203D1B
:1016A000D4F8203D43F07043C4F8203DFFF780FF9D
:1016B00000250E4B1D60FFF7C3FED4F8343F43F006
:1016C0004043C4F8343FFFF7A7FE00F0B7FEFFF732
:1016D00083FE284603B030BD71C20F4170C20F4176
:1016E00000E400E0F8350120FC3501200000002076
:1016F00000F1080343604FF0FF328260C360036172
:1017000000230360704700230361704743684B6008
:101710009A688A60516099600861036801330360C8
:10172000704730B40D68B5F1FF3F11D000F10803E8
:101730001C465B681A68AA42FAD963684B609960D4
:101740008C606160086103680133036030BC7047DE
:101750000469F2E70369416882688A604168516000
:101760005A68824206D0002202611A68013A1A6061
:101770001868704782685A60F5E710B50446FFF7AD
:1017800091FEA36B23B90124FFF7AEFE204610BDE6
:101790000024F9E70346026C6AB110B50846D9681F
:1017A0001144D9609C68A14201D31968D960D968F5
:1017B000FFF776FB10BD704738B50546FFF772FEA0
:1017C00095F8454064B201E0013C64B2002C0ADDAA
:1017D0006B6A43B105F1240000F0BEFE0028F3D08F
:1017E00000F082FFF0E7FF2385F84530FFF77CFE2D
:1017F000FFF758FE95F8444064B201E0013C64B242
:10180000002C0ADD2B6943B105F1100000F0A4FEA5
:101810000028F3D000F068FFF0E7FF2385F844309C
:10182000FFF762FE38BD38B590B10D460446C36B74
:101830002BB1026C0021A3FB022393B999B14FF0A5
:10184000500383F31188BFF36F8FBFF34F8FFEE711
:101850004FF0500383F31188BFF36F8FBFF34F8FA7
:10186000FEE70121EAE7FFF71DFE2368E26B216C2A
:1018700001FB0230A0600020A0636360013A02FB1C
:101880000133E360FF2384F8443084F84530B5B970
:1018900023691BB9FFF728FE012038BD04F11000B1
:1018A00000F05AFE0028F5D04FF0E0234FF08052B0
:1018B000C3F8042DBFF34F8FBFF36F8FEAE704F136
:1018C0001000FFF715FF04F12400FFF711FFE1E717
:1018D00038B51D46049C0B4649B92460E063236477
:1018E00001212046FFF79FFF84F84C5038BD22604D
:1018F000F4E7F0B583B060B10C4617460546002307
:10190000A0FB041272B923B904FB05F010F1510FCA
:101910000AD94FF0500383F31188BFF36F8FBFF3E1
:101920004F8FFEE70123EEE75030FFF79DFC0646A0
:1019300038B100903B4600F1500221462846FFF79F
:10194000C7FF304603B0F0BDF0B585B0019290B14D
:101950000F460446C1B100F0CDFE064600BB019B18
:10196000002B5ED04FF0500383F31188BFF36F8FCD
:10197000BFF34F8FFEE74FF0500383F31188BFF39F
:101980006F8FBFF34F8FFEE7036C002BE3D04FF058
:10199000500383F31188BFF36F8FBFF34F8FFEE7C0
:1019A00000263EE039462046FFF7F4FE013DA563E0
:1019B000236923B9FFF798FD012005B0F0BD04F1BC
:1019C000100000F0C9FD0028F4D04FF0E0234FF0E4
:1019D0008052C3F8042DBFF34F8FBFF36F8FE9E739
:1019E000FFF782FD0020E8E702A800F02DFE0126A7
:1019F00021E0002384F8443029E0002384F84530B6
:101A00002BE02046FFF7D8FE00F0F4FB09E020466B
:101A1000FFF7D2FE00F0EEFB2046FFF7AEFE0028F7
:101A20003FD1FFF73FFDA56B002DBBD1019B002BE4
:101A3000D6D0002ED8D0FFF757FD00F011FBFFF7EE
:101A400031FD94F844305BB2B3F1FF3FD1D094F84C
:101A500045305BB2B3F1FF3FCFD0FFF745FD01A9A1
:101A600002A800F0FDFD0028D1D12046FFF785FE39
:101A70000028C6D0019904F1240000F02BFD204677
:101A8000FFF79AFE00F0B6FB0028CAD14FF0E02322
:101A90004FF08052C3F8042DBFF34F8FBFF36F8F09
:101AA000BFE7002089E7000030B110B40C460146C2
:101AB0008CB10020034612E04FF0500383F31188ED
:101AC000BFF36F8FBFF34F8FFEE70E4800EBC300ED
:101AD00008B1046041605DF8044B70470133072B87
:101AE000F6D8084A02EBC30252688A42EDD00028B9
:101AF000F4D1044A52F83320002AEFD1014800EB18
:101B0000C300EBE70036012070B504460D461646CB
:101B1000FFF7C8FC94F844305BB2B3F1FF3F0DD03F
:101B200094F845305BB2B3F1FF3F0BD0FFF7DCFC1C
:101B3000A36B5BB12046FFF73FFE70BD002384F826
:101B40004430EDE7002384F84530EFE7324629467C
:101B500004F1240000F0D6FCECE70000074B1B6802
:101B60001B6823B9064B4FF0FF321A607047034BD6
:101B70001B68DB681A68024B1A6070474436012004
:101B8000F036012010B50446006BFFF7E9FB204654
:101B9000FFF7E6FB10BD2DE9F84380460C461646DC
:101BA0009946089F0A9D9200A521286B05F004FF25
:101BB0002A6B06F18043013B02EB830323F0070607
:101BC0006CB100220E2A07D8A15CAB1883F8341040
:101BD000A15C09B10132F5E7002385F84230042FFA
:101BE00008D94FF0500383F31188BFF36F8FBFF311
:101BF0004F8FFEE7EF62EF64281DFFF784FD05F1CC
:101C00001800FFF780FD2D61C7F10507AF616D6218
:101C10004A4641463046FFF71DFC2860099B03B148
:101C20001D60BDE8F883000038B5002407E004EB30
:101C3000840293000E481844FFF75AFD0134042C27
:101C4000F5D90C4D2846FFF753FD0B4C2046FFF706
:101C50004FFD0A48FFF74CFD0948FFF749FD0948C9
:101C6000FFF746FD084B1D60084B1C6038BD00BFE8
:101C70004C360120C4360120D8360120FC36012024
:101C8000283701201437012044360120483601202E
:101C900010B50446FFF706FC294A136801331360A8
:101CA000284B1B685BB1284B1B686BB9254B1B6825
:101CB000DA6AE36A9A4207D8224B1C6004E0214B9F
:101CC0001C601368012B37D0204A1368013313605E
:101CD0006364E36A01229A401D49086802430A606E
:101CE0001C4A03EB830302EB83035B68A3609868E1
:101CF000E060211D41609960E36A03EB8301880085
:101D000002EB81016161115801311150FFF7ECFBC9
:101D10000D4B1B687BB10B4B1B68DA6AE36A9A4276
:101D200009D24FF0E0234FF08052C3F8042DBFF3E7
:101D30004F8FBFF36F8F10BDFFF776FFC4E700BF73
:101D4000B03601204036012010370120BC3601207A
:101D5000C03601204C3601200F4B1B68D3B110B5A3
:101D6000FFF7A0FB0D4BDB68DC68201DFFF7F2FCE2
:101D70000B4A1368013B1360074A1368013B136069
:101D8000FFF7B2FB2046FFF7FDFE034B1B68002B5D
:101D9000E6D110BD704700BFB436012028370120BE
:101DA000B036012008B5FFF7D7FF074B1B68012BA2
:101DB000F9D94FF0E0234FF08052C3F8042DBFF360
:101DC0004F8FBFF36F8FEEE74C36012070B504469E
:101DD0000D46244B1E68244B18680430FFF7BAFCEC
:101DE00050B9214B1B68DA6A012303FA02F21F493A
:101DF0000B6823EA02030B60B4F1FF3F0DD03444BB
:101E0000194B1B685C60A6421DD9194B1868164B0C
:101E100019680431FFF785FC70BD002DEFD0154A1D
:101E20005168114B1868816018688C68C460186824
:101E3000043060601868043088601B685A61136859
:101E400001331360E8E70C4B1868074B196804313D
:101E5000FFF767FC094B1B68A342DDD9074B1C60E9
:101E6000DAE700BF3C37012040360120C0360120B0
:101E7000483601201437012044360120F036012075
:101E80002DE9F04385B00746884614461E4690006B
:101E9000FFF7EAF910B381465C20FFF7E5F9054644
:101EA000C0B15C22002105F087FDC5F83090D5B1A6
:101EB0000023039302950D9B01930C9B00933346E3
:101EC000224641463846FFF766FE2846FFF7E0FE09
:101ED000012005E04846FFF743FAE8E74FF0FF30FE
:101EE00005B0BDE8F0834FF0FF30F9E738B50446A0
:101EF000FFF7D8FA002C37D0251D2846FFF72AFC1B
:101F000068B9E26A02EB82039B002949CB5833B9D6
:101F10000123934027490A6822EA03020A60A36A60
:101F20001BB104F11800FFF715FC234A13680133B5
:101F30001360224B1B68A34219D0214A1368013B4E
:101F40001360FFF70BFEFFF7CFFA1C4B1B68A34291
:101F500002D02046FFF716FE1A4B1B681BB1174B29
:101F60001B68A3420CD038BD144B1C68C4E729463B
:101F70001548FFF7CBFB154A136801331360E2E7FE
:101F8000134B1B6843B14FF0500383F31188BFF329
:101F90006F8FBFF34F8FFEE74FF0E0234FF080527B
:101FA000C3F8042DBFF34F8FBFF36F8FDBE700BF84
:101FB0004C360120C0360120BC36012040360120BD
:101FC000B03601201037012028370120B436012017
:101FD000B836012000B583B01A4B0193002300935B
:101FE000822219491948FFF74BFF012809D001281F
:101FF0000AD0B0F1FF3F1CD0154B1B6803B05DF851
:1020000004FB00F009FDF2E74FF0500383F3118861
:10201000BFF36F8FBFF34F8F0E4B4FF0FF321A603D
:102020000D4B01221A600D4B00221A60FFF7D4FA03
:10203000E2E74FF0500383F31188BFF36F8FBFF3D4
:102040004F8FFEE7EC360120C8FB0008A51D0008F5
:1020500004000020F0360120103701203C37012019
:10206000024A136801331360704700BFB83601207D
:10207000014B1868704700BF3C370120F8B5524B40
:102080001B68002B40F09980504B1C6801341C6089
:10209000C4B94F4B1B681B6843B14FF0500383F327
:1020A0001188BFF36F8FBFF34F8FFEE7484A116867
:1020B000484B186810601960474A13680133136071
:1020C000FFF74CFD454B1B68A34211D90020444B40
:1020D0001B68DB6A03EB83039A00424B9B58012B7E
:1020E00000D90120404B1B68002B6BD0012069E018
:1020F000002037E0394B4FF0FF321A60E7E7374BEB
:102100001A60E4E7D968516042E0002199621168E1
:1021100001391160DA6A01219140344E3768394340
:102120003160304902EB82024FEA820C8C44DCF8C9
:1021300004209A609668DE6075609560DA6A02EB4A
:10214000820C4FEA8C054E195E614D5901354FEAFC
:102150008C0C41F80C50DA6A214B1B68DB6A9A42FE
:1021600000D901201A4B1B681B68002BC2D0184BEA
:102170001B68DB68DB685A689442C0D35A699D6863
:10218000D968A9609D684D6051681D1DA942B9D0EC
:10219000002159611168013911609A6A002AB9D089
:1021A000DE69196AB160DE694E60566803F1180194
:1021B0008E42AAD1196A5160A7E70D4A136801330C
:1021C00013600020F8BD00BFB83601203C37012065
:1021D0004436012048360120F4360120F036012033
:1021E000403601204C36012040370120C036012006
:1021F000F836012038B54A4B1B6843B94FF05003FD
:1022000083F31188BFF36F8FBFF34F8FFEE7FFF7A4
:1022100049F9434B1A68013A1A601B68002B7AD1BE
:10222000404B1B683BB9002476E0196A516015E009
:10223000D968516021E000233B4A1268002A47D048
:10224000394BDB68DB689A6AD869196A8160D8699A
:102250004860506803F118018842E6D00021996275
:102260001168013911605A699868D9688160986865
:1022700048605168181D8142DAD000215961116807
:1022800001391160DA6A01219140284C25682943FF
:102290002160274902EB820201EB820252689A60B8
:1022A0009468DC6060609060DA6A02EB820084000F
:1022B00001EB80005861085901300851D96A1D4A64
:1022C0001268D26A9142B7D31B4A01211160B3E769
:1022D0000BB1FFF743FC194B1C6884B9164B1C6803
:1022E000D4B14FF0E0234FF08052C3F8042DBFF378
:1022F0004F8FBFF36F8F01240EE0013C07D0FFF733
:10230000BDFE0028F9D00C4B01221A60F5E70B4BFB
:1023100000221A60E2E70024FFF7E6F8204638BD05
:10232000B8360120B0360120FC360120C03601202D
:102330004C3601204036012040370120F83601207C
:1023400038B558B10C46054689B94FF0500383F3B0
:102350001188BFF36F8FBFF34F8FFEE74FF050032D
:1023600083F31188BFF36F8FBFF34F8FFEE71E4BD0
:102370001B6843B14FF0500383F31188BFF36F8F95
:10238000BFF34F8FFEE7FFF76BFE184B18682B6803
:102390001C4483420BD9A34202D82C60002410E0D5
:1023A000A04202D32C6000240BE02C6004E0A34286
:1023B00001D8A04214D22C600021201AFFF706FD9C
:1023C0000124FFF717FF48B94FF0E0234FF0805288
:1023D000C3F8042DBFF34F8FBFF36F8F204638BD76
:1023E0002C600024EDE700BFB83601203C37012007
:1023F00010B5A8B10446104B1B6843B14FF0500311
:1024000083F31188BFF36F8FBFF34F8FFEE7FFF7A2
:1024100027FE00212046FFF7D9FCFFF7EBFE48B965
:102420004FF0E0234FF08052C3F8042DBFF34F8FDD
:10243000BFF36F8F10BD00BFB8360120204B1B6863
:102440001BB1204B01221A6070471E4B00221A60FC
:102450001D4B1B68B3FA83F3DBB2C3F11F0303EB1D
:1024600083018A0019498A5842B94FF0500383F317
:102470001188BFF36F8FBFF34F8FFEE7134903EB54
:10248000830082000A4450684068506003EB830C6C
:102490004FEA8C0208321144884209D003EB8303CF
:1024A0009A000A4B13445B68DA68094B1A6070475C
:1024B000406862469100054A0A445060EEE700BF5A
:1024C000B836012040370120C03601204C360120AB
:1024D0004036012058B110B50C46094A1168183130
:1024E000FFF71FF901212046FFF770FC10BD4FF0E8
:1024F000500383F31188BFF36F8FBFF34F8FFEE755
:102500004036012038B5D8B18C46114605464268A0
:10251000104B1868C2611868946804621868183013
:1025200060601868183090601B689D622B680133EA
:102530002B6009B14FF0FF3C6046FFF747FC38BD08
:102540004FF0500383F31188BFF36F8FBFF34F8FAA
:10255000FEE700BF40360120C368DB68002B4AD08D
:1025600030B49A6AD869196A8160D869486051683C
:1025700003F11800814247D00021996211680139A6
:1025800011602B4A1268002A44D15A699868D968A8
:102590008160986848605168181D814237D00021D9
:1025A0005961116801391160DA6A01219140214CA9
:1025B000256829432160204902EB820201EB820257
:1025C00052689A609468DC6060609060DA6A02EB3E
:1025D0008200840001EB80005861085901300851E5
:1025E000DA6A164B1B68DB6A9A421FD90120144B2A
:1025F000186030BC70474FF0500383F31188BFF36D
:102600006F8FBFF34F8FFEE7196A5160B4E7D96847
:102610005160C4E70B4A5168D9618C681C626060E4
:1026200088609A62116801311160D9E70020E0E703
:10263000B8360120C03601204C360120403601203A
:1026400040370120FC360120034B1B680360034B1D
:102650001B684360704700BFF43601203C370120FF
:10266000F8B5B8B10C460546E9B1FEF71BFF1C4BA7
:1026700019686B68C81A2268B2F1FF3F2AD0194E58
:1026800036682F68B74217D08B4215D800232360D5
:10269000012420E04FF0500383F31188BFF36F8FC4
:1026A000BFF34F8FFEE74FF0500383F31188BFF362
:1026B0006F8FBFF34F8FFEE7824203D80023236062
:1026C000012408E05B1A134423602846FFF7BCFF8F
:1026D000002400E00024FEF707FF2046F8BD00BFFD
:1026E0003C370120F4360120014B01221A6070476B
:1026F00040370120054B1B6833B1054B1B680BB1FC
:1027000000207047022070470120704710370120D9
:10271000B8360120064B1A6813682BB901230360F1
:1027200023B9D368186870470023F8E70020704782
:102730004437012008B54160006191420CD8D21A9B
:1027400083699A4201D3012008BD011D094B186815
:10275000FEF7E7FF0020F7E79A4201D2994206D23E
:10276000011D054B1868FEF7DCFF0020ECE7012097
:10277000EAE700BF483701204437012070B504461E
:102780000D46164604E0A3691D44236A2046984777
:10279000A1692B46324629442046FFF7CBFF00288B
:1027A000F1D170BD70B505460E460D4B1B68DB6858
:1027B000DC68201DFEF7CEFF94F8283013F0040FDC
:1027C00007D123F0010384F82830236A2046984774
:1027D00070BD324629462046FFF7D0FFF5E700BF1F
:1027E0004437012008B505E0DB684FF0FF31186879
:1027F000FFF7D8FF054B1B681A68002AF4D1044A7A
:10280000106802490860136008BD00BF443701200A
:102810004837012038B50546FFF72AFC0446074B28
:102820001B68834205D800232B60044B1C602046A4
:1028300038BDFFF7D7FF01232B60F6E7743701207F
:1028400070B582B006460C46FFF70AFC01A8FFF7F8
:10285000E1FF019B33BB05460CB9B04219D224B14C
:10286000124A12681268DAB901242246711B104B11
:102870001868FFF749F9FFF7BDFCA8B94FF0E0234E
:102880004FF08052C3F8042DBFF34F8FBFF36F8F0B
:102890000AE0FFF7AFFC29463046FFF783FF03E06D
:1028A0001C46E2E7FFF7A6FC02B070BD48370120E6
:1028B0007837012030B585B0002201A9384B18685F
:1028C000FFF742F8002869D0019B002BF4DB039C42
:1028D000636913B1201DFEF73DFF6846FFF79AFFBD
:1028E0000546019B013B082BE6D8DFE803F0050510
:1028F000293049050529300094F8283043F00103B8
:1029000084F82830029BA169024619442046FFF74B
:1029100011FF0028D0D094F8283013F0040F07D10D
:1029200023F0010384F82830236A20469847C3E740
:10293000A3692A46029919442046FFF71FFFF3E7CF
:1029400094F8283023F0010384F82830B4E794F891
:10295000283043F0010384F828300299A16131B195
:102960000346024601442046FFF7E4FEA4E74FF089
:10297000500383F31188BFF36F8FBFF34F8FFEE7D0
:1029800094F8283013F0020F04D023F0010384F8E8
:10299000283091E72046FEF7E3FC8DE705B030BD17
:1029A0007837012000B583B001A8FFF7B3FE019985
:1029B000FFF746FFFFF77EFFF6E7000038B5FEF7AA
:1029C00071FD0F4B1B6813B1FEF78EFD38BD0D4D29
:1029D0002846FEF78DFE0C4C2046FEF789FE0B4B79
:1029E0001D600B4B1C6000220C210A20FEF781FFAA
:1029F000034B18600028E7D00649FFF755F8E3E7D6
:102A0000783701204C3701206037012044370120FE
:102A100048370120D0FB000800B583B0FFF7CEFF98
:102A20000D4B1B685BB10D4B0193022300930023F8
:102A30004FF482720A490B48FFF722FA40B94FF06F
:102A4000500383F31188BFF36F8FBFF34F8FFEE7FF
:102A500003B05DF804FB00BF783701207C3701200C
:102A6000D8FB0008A529000808B50B4B1A6842F4EA
:102A700000721A601A6842F480621A601A6842F49E
:102A800080721A60032000F02FF8002004F0B6F9DD
:102A900004F098F9002008BD003C0240034A116888
:102AA000034B1B780B441360704700BF8037012035
:102AB00008000020014B1868704700BF80370120D4
:102AC00038B50446FFF7F6FF0546B4F1FF3F02D0E4
:102AD000044B1B781C44FFF7EDFF401BA042FAD3C8
:102AE00038BD00BF08000020074AD36823F4E06324
:102AF0001B041B0C000200F4E060034343F0BF63BF
:102B000043F40033D360704700ED00E000B5194B8B
:102B1000DB68C3F30223C3F1070CBCF1040F28BF29
:102B20004FF0040C03F1040EBEF1060F18D9033B5D
:102B30004FF0FF3E0EFA0CFC21EA0C0199400EFA10
:102B400003F322EA0303194300280BDB0901C9B28E
:102B500000F1604000F5614080F800135DF804FB6F
:102B60000023E5E700F00F000901C9B2024B195438
:102B7000F4E700BF00ED00E014ED00E0002807DB03
:102B800000F01F02400901239340024A42F820301E
:102B9000704700BF00E100E070B50446866DFFF7A6
:102BA00089FF94F83530DBB2022B06D080236365B1
:102BB000002384F83430012070BD05462268136874
:102BC00023F0160313602268536923F080035361D6
:102BD000236CE3B12268136823F0080313602268B2
:102BE000136823F00103136023681B6813F0010FBF
:102BF00011D0FFF75FFF431B052BF5D92023636539
:102C0000032084F83500002384F83430D4E7A36C23
:102C1000002BDFD1E3E7E26D3F239340B360012354
:102C200084F83530002084F83400C5E790F835305A
:102C3000DBB2022B03D080234365012070470523BC
:102C400080F835300268136823F001031360002018
:102C50007047000000230F2B00F2D28070B582B0C5
:102C600060E085685E000324B44025EA0405CC6872
:102C7000B4402C438460456825EA02054C68C4F3DF
:102C800000129A402A4342605AE0DC08083450F8A7
:102C9000246003F0070295000F22AA4026EA020EE4
:102CA0000A69AA4042EA0E0240F824205CE00422AD
:102CB00000E0002202FA0EF22A430234514D45F898
:102CC0002420514A94686FEA0C0224EA0C054E68ED
:102CD00016F4801F01D04CEA04054B4CA560E46853
:102CE00002EA04054E6816F4001F01D04CEA040500
:102CF000454CE560646802EA04054E6816F4003F3E
:102D000001D04CEA0405404C6560246822404D68BF
:102D100015F4803F01D04CEA04023B4C22600133A1
:102D20000F2B6BD801229A400C6804EA020C32EA9D
:102D30000404F4D14C6804F00304013C012C90D944
:102D40004A6802F00302032A09D0C4685D00032226
:102D5000AA4024EA02048A68AA402243C2604A6860
:102D600002F00302022A90D004684FEA430E0322C5
:102D700002FA0EF224EA02044A6802F0030202FA9E
:102D80000EF2224302604A6812F4403FC7D000228C
:102D900001921E4A546C44F480445464526C02F410
:102DA00080420192019A9C08A51C164A52F82550AF
:102DB00003F003024FEA820E0F2202FA0EF225EA16
:102DC0000205134A90423FF474AF02F580629042CC
:102DD0000ED002F5806290420CD002F580629042E3
:102DE0000AD002F5806290423FF461AF072261E7AA
:102DF00001225FE702225DE703225BE702B070BDBC
:102E0000704700BF00380140003C014000380240DC
:102E1000000002400369194201D0012070470020E0
:102E200070470AB181617047090481617047436945
:102E300001EA030221EA030141EA0241816170478C
:102E4000002800F0CC8070B5044690F83D30002B8F
:102E500077D0242384F83D302268136823F00103DF
:102E600013602268136843F40043136022681368F8
:102E700023F40043136000F0C5FB62685A4B9A428A
:102E800064D85A4B98428CBF00230123002B40F09A
:102E9000A8805749A1FB00318B0C25686A6822F095
:102EA0003F0242EA91426A6021680A6A22F03F02C8
:102EB00066684D4DAE424FD8013313430B62216813
:102EC000CA6922F44F4222F0FF026668464B9E42D6
:102ED0004CD8431E7600B3FBF6F3013340F6FC708A
:102EE000034278D0C3F30B031343CB6121680B6813
:102EF00023F0C003E269206A024313430B60216898
:102F00008B6823F4034323F0FF032269E068024344
:102F100013438B602168CB6823F0FF036269A069CB
:102F200002431343CB602268136843F0010313602C
:102F300000202064202384F83D30206384F83E0084
:102F400070BD80F83C3003F00FFE82E7294B9842B9
:102F50008CBF0023012399E74FF4967505FB03F31B
:102F6000254DA5FB03539B090133A6E7A368BBB915
:102F7000451E06EB460CB5FBFCF50135C5F30B050C
:102F8000B5FA85F56D0945BBC3B9013806EB4603B3
:102F9000B0FBF3F30133C3F30B0343F40043A3E7A4
:102FA000451E06EB860C0CEB8C0CB5FBFCF50135D5
:102FB000C5F30B05B5FA85F56D09E4E7013806EBB5
:102FC000860303EB8303B0FBF3F30133C3F30B037B
:102FD00043F4404388E7042386E7012384E7012084
:102FE00070470120ACE700BFA08601007F841E006F
:102FF00083DE1B43FF083D00D34D6210002800F024
:10300000E08170B582B00446036813F0010F3BD035
:103010009F4B9B6803F00C03042B2CD09C4B9B68AC
:1030200003F00C03082B21D06368B3F5803F4FD029
:10303000B3F5A02F52D0964B1A6822F480321A6052
:103040001A6822F480221A606368002B50D0FFF7C0
:1030500031FD05468E4B1B6813F4003F14D1FFF77A
:1030600029FD401B6428F5D90320B1E1884B5B683A
:1030700013F4800FD8D0864B1B6813F4003F03D0A5
:103080006368002B00F09F81236813F0020F54D077
:103090007F4B9B6813F00C0F3ED07D4B9B6803F079
:1030A0000C03082B33D0E368002B68D0794B012246
:1030B0001A60FFF7FFFC0546754B1B6813F0020F03
:1030C00054D1FFF7F7FC401B0228F5D903207FE11C
:1030D0006F4A136843F480331360B5E76C4B1A688A
:1030E00042F480221A601A6842F480321A60ABE718
:1030F000FFF7E0FC0546664B1B6813F4003FC3D0A6
:10310000FFF7D8FC401B6428F5D9032060E1604B31
:103110005B6813F4800FC6D15D4B1B6813F0020F80
:1031200003D0E368012B40F05081594A136823F023
:10313000F803216943EAC1031360236813F0080F01
:1031400042D063696BB3534B0122C3F8802EFFF763
:10315000B1FC05464E4B5B6F13F0020F34D1FFF705
:10316000A9FC401B0228F5D9032031E1484A136825
:1031700023F0F803216943EAC1031360DDE7454BFF
:1031800000221A60FFF796FC0546414B1B6813F0BE
:10319000020FD2D0FFF78EFC401B0228F5D9032086
:1031A00016E13C4B0022C3F8802EFFF783FC054656
:1031B000374B5B6F13F0020F06D0FFF77BFC401B11
:1031C0000228F5D9032003E1236813F0040F77D018
:1031D0002F4B1B6C13F0805F33D1002301932C4BDA
:1031E0001A6C42F080521A641B6C03F080530193F6
:1031F000019B0125284B1B6813F4807F23D0A36813
:10320000012B34D0052B38D0214B1A6F22F001024C
:103210001A671A6F22F004021A67A368002B3DD0C8
:10322000FFF748FC06461A4B1B6F13F0020F46D1FE
:10323000FFF740FC801B41F288339842F3D903200A
:10324000C6E00025D6E7144A136843F48073136080
:10325000FFF730FC0646104B1B6813F4807FCED17D
:10326000FFF728FC801B0228F5D90320B0E0084AAC
:10327000136F43F001031367CFE7054B1A6F42F05A
:1032800004021A671A6F42F001021A67C5E700BF0D
:10329000003802400000474200700040FFF70AFC7F
:1032A0000646524B1B6F13F0020F08D0FFF702FCCB
:1032B000801B41F288339842F3D9032088E0EDB9AE
:1032C000A369002B00F08380484A926802F00C0248
:1032D000082A51D0022B17D0454B00221A66FFF75F
:1032E000E9FB0446414B1B6813F0007F42D0FFF717
:1032F000E1FB001B0228F5D9032069E03B4A136C6F
:1033000023F080531364DBE7394B00221A66FFF782
:10331000D1FB0546354B1B6813F0007F06D0FFF745
:10332000C9FB401B0228F5D9032051E0E369226A5A
:103330001343626A43EA8213A26A5208013A43EADB
:103340000243E26A43EA0263284A5360284B01229F
:103350001A66FFF7AFFB0446244B1B6813F0007F8F
:1033600006D1FFF7A7FB001B0228F5D903202FE0A9
:1033700000202DE000202BE0012B2BD01B4B5B68A5
:1033800003F48001E269914226D103F03F02216AF1
:103390008A4223D1616A47F6C0721A40B2EB811F9C
:1033A0001ED103F44031A26A5208013AB1EB024F38
:1033B00018D103F07063E26AB3EB026F14D10020FE
:1033C00006E001207047012002E0012000E000201B
:1033D00002B070BD0120FBE70120F9E70120F7E70B
:1033E0000120F5E70120F3E70120F1E70038024072
:1033F0000000474208B5254B9B6803F00C03042BE3
:103400003FD0082B3FD1214B5A6802F03F025B6846
:1034100013F4800F12D01D4B5968C1F388111C485A
:103420000023A1FB0001FDF7B9FB184B5B68C3F358
:10343000014301335B00B0FBF3F025E0134B596807
:10344000C1F3881C4FEA4C11B1EB0C006EEB0E0E71
:103450004FEA8E1343EA90638101091A63EB0E036E
:10346000DB0043EA5173C90011EB0C0C43F100037C
:10347000990200234FEA8C2041EA9C51FDF78EFB14
:10348000D3E7034800E0034808BD00BF003802400E
:1034900040787D010024F400002800F09B8070B586
:1034A0000D4604464F4B1B6803F007038B4208D2BE
:1034B000CBB24C4A1370136803F007038B4240F001
:1034C0008B80236813F0020F17D013F0040F04D081
:1034D000454A936843F4E0539360236813F0080F60
:1034E00004D0414A936843F4604393603E4A936832
:1034F00023F0F003A1680B439360236813F0010FDE
:1035000032D06368012B21D09A1E012A25D9364A70
:10351000126812F0020F61D033498A6822F0030268
:1035200013438B60FFF7C6FA06462F4B9B6803F0E8
:103530000C036268B3EB820F16D0FFF7BBFA801B57
:1035400041F288339842F0D9032042E0264A1268BB
:1035500012F4003FE0D101203BE0234A126812F050
:10356000007FD9D1012034E01E4B1B6803F0070314
:10357000AB4207D9EAB21B4B1A701B6803F0070372
:10358000AB422DD1236813F0040F06D0164A93687E
:1035900023F4E053E1680B439360236813F0080FB2
:1035A00007D0114A936823F46043216943EAC103B9
:1035B0009360FFF71FFF0C4B9B68C3F303130B4A89
:1035C000D35CD8400A4B18600A4B186803F016FC0D
:1035D000002070BD012070470120FAE70120F8E7C4
:1035E0000120F6E7003C02400038024040FD0008A0
:1035F000100000200C000020014B1868704700BF2D
:103600001000002008B5FFF7F7FF044B9B68C3F3D9
:103610008223034AD35CD84008BD00BF0038024073
:1036200050FD000808B5FFF7E7FF044B9B68C3F3A4
:103630004233034AD35CD84008BD00BF0038024083
:1036400050FD00080F2303600B4B9A6802F0030241
:1036500042609A6802F0F00282609A6802F4E052D6
:10366000C2609B68DB0803F4E0530361034B1B68F3
:1036700003F007030B60704700380240003C024033
:1036800070B4036A026A22F001020262466882692B
:1036900022F073020C6844EA020523F002028B68F0
:1036A00013430D4CA04209D00B4CA0420DD04660F4
:1036B00085614A684263036270BC704723F0080367
:1036C000CA68134323F00403EEE726F440764A6900
:1036D00032438E691643EAE70000014030B4036AC2
:1036E000026A22F4807202624568C26922F07302A3
:1036F0000C68224323F400738C6843EA04230F4CC4
:10370000A04209D00D4CA0420ED04560C2614A686B
:10371000C263036230BC704723F40063CC6843EAA1
:10372000042323F48063EDE725F440554C6945EA12
:1037300004158C6945EA0415E7E700BF0000014065
:1037400030B4036A026A22F4805202624468C26999
:1037500022F4E6420D6842EA052223F400538D6804
:1037600043EA0533074DA84206D04460C2614A6867
:103770000264036230BC704724F480444D6944EA1B
:103780008514F2E70000014010B4036A046A24F0D3
:1037900001040462846924F0F00C4CEA021223F064
:1037A0000A030B43826103625DF8044B704710B457
:1037B000036A046A24F010040462846924F4704CDF
:1037C0004CEA023223F0A00343EA01138261036250
:1037D0005DF8044B7047836823F070030B4343F09C
:1037E000070383607047000090F83D30DBB2012B87
:1037F0002FD1022380F83D300268D36843F00103E3
:10380000D3600368154A934218D0B3F1804F15D0A6
:10381000A2F57C42934211D002F5806293420DD012
:1038200002F58062934209D002F59A32934205D0A4
:103830001A6842F001021A60002070479A6802F08C
:103840000702062A07D01A6842F001021A60002017
:103850007047012070470020704700BF0000014002
:10386000704770477047704770B504460368DE685C
:103870001D6915F0020F10D016F0020F0DD06FF079
:1038800002021A610123037703689B6913F0030F97
:103890005ED0FFF7E7FF0023237715F0040F12D067
:1038A00016F0040F0FD023686FF004021A61022390
:1038B000237723689B6913F4407F4FD02046FFF79E
:1038C000D1FF0023237715F0080F12D016F0080F50
:1038D0000FD023686FF008021A610423237723684E
:1038E000DB6913F0030F40D02046FFF7BBFF002336
:1038F000237715F0100F12D016F0100F0FD0236899
:103900006FF010021A61082323772368DB6913F430
:10391000407F31D02046FFF7A5FF0023237715F025
:10392000010F02D016F0010F2DD115F0800F02D03B
:1039300016F0800F2FD115F0400F02D016F0400F77
:1039400031D115F0200F02D016F0200F33D170BD09
:10395000FFF787FF204601F007FD9CE72046FFF7B1
:1039600080FF204601F000FDABE72046FFF779FF1E
:10397000204601F0F9FCBAE72046FFF772FF204627
:1039800001F0F2FCC9E723686FF001021A612046DA
:1039900003F032F9C9E723686FF080021A6120460C
:1039A00000F0ACFBC7E723686FF040021A612046C5
:1039B000FFF759FFC5E723686FF020021A61204620
:1039C00000F09BFBC3E700000368294A90420ED039
:1039D000B0F1804F0BD0A2F57C42904207D002F5A7
:1039E0008062904203D002F58062904203D123F0BE
:1039F00070034A6813431E4A90421AD0B0F1804FB8
:103A000017D0A2F57C42904213D002F5806290421A
:103A10000FD002F5806290420BD002F59A329042AC
:103A200007D002F58062904203D002F58062904296
:103A300003D123F44073CA68134323F080034A6917
:103A4000134303608B68C3620B688362084B984220
:103A50000AD001234361036913F0010F03D0036906
:103A600023F00103036170470B690363F1E700BFB3
:103A70000000014040B310B5044690F83D30F3B16A
:103A8000022384F83D30214651F8040BFFF79CFFD8
:103A9000012384F8463084F83E3084F83F3084F8BF
:103AA000403084F8413084F8423084F8433084F860
:103AB000443084F8453084F83D30002010BD80F853
:103AC0003C3003F0D3FADBE70120704740B310B578
:103AD000044690F83D30F3B1022384F83D3021468E
:103AE00051F8040BFFF770FF012384F8463084F887
:103AF0003E3084F83F3084F8403084F8413084F818
:103B0000423084F8433084F8443084F8453084F8F7
:103B10003D30002010BD80F83C30FFF7A1FEDBE710
:103B20000120704730B4036A026A22F01002026278
:103B30004468826922F4E6420D6842EA052223F0D5
:103B400020038D6843EA05130E4DA84209D00D4DA0
:103B5000A8420ED0446082614A688263036230BC2E
:103B6000704723F08003CD6843EA051323F0400338
:103B7000EDE724F440644D6944EA85048D6944EA24
:103B80008504E7E70000014038B590F83C30012B90
:103B900066D004460D46012380F83C300C2A5AD8E2
:103BA000DFE802F0075959591B59595930595959E9
:103BB00044000068FFF764FD2268936943F008033E
:103BC00093612268936923F00403936122689369E7
:103BD00029690B43936100203EE00068FFF7A2FFD4
:103BE0002268936943F4006393612268936923F424
:103BF0008063936122689369296943EA0123936191
:103C0000002029E00068FFF769FD2268D36943F0CE
:103C10000803D3612268D36923F00403D3612268C7
:103C2000D36929690B43D361002015E00068FFF7D1
:103C300087FD2268D36943F40063D3612268D369A6
:103C400023F48063D3612268D369296943EA01239D
:103C5000D361002000E00120002384F83C3038BD0F
:103C60000220FCE710B4846824F47F4C42EA03226B
:103C70000A4342EA0C0282605DF8044B704790F8F8
:103C80003C30012B78D010B50446012380F83C303D
:103C9000022380F83D300268936823F47F4323F0C9
:103CA000770393600B68602B4CD029D8402B54D0FD
:103CB0000CD9502B22D1CA6849680068FFF764FD0F
:103CC00050212068FFF787FD002005E0202B0DD054
:103CD00009D9302B0AD00120012384F83D3000237C
:103CE00084F83C3010BD0BB1102B05D1194620686B
:103CF000FFF771FD0020EFE70120EDE70120EBE782
:103D0000B3F5805F34D0B3F5005F0CD1CB684A685F
:103D100089680068FFF7A6FF2268936843F4804330
:103D200093600020D8E7702B24D1CB684A6889685B
:103D30000068FFF797FF2268936843F0770393606A
:103D40000020C9E7CA6849680068FFF730FD6021B4
:103D50002068FFF740FD0020BEE7CA684968006898
:103D6000FFF712FD40212068FFF735FD0020B3E783
:103D70000020B1E70120AFE70220704701F01F01EA
:103D8000012303FA01FC036A23EA0C030362036ABA
:103D900002FA01F10B4303627047000038B5044694
:103DA0000D4600220068FFF7E9FF23681B4A934293
:103DB00014D02368196A41F21112114208D1196A0C
:103DC00040F24442114203D11A6822F001021A6003
:103DD0009DB9012384F83E30002038BD196A41F2B4
:103DE00011121142E5D1196A40F244421142E0D168
:103DF0005A6C22F400425A64DBE7042D05D0082DEA
:103E000007D0012384F84130E6E7012384F83F30EE
:103E1000E2E7012384F84030DEE700BF0000014004
:103E200010B504460846C1B994F83E30DBB2013BF8
:103E300018BF0123002B40F0868038BB022384F892
:103E40003E300C2800F28180DFE800F0307F7F7F79
:103E50005B7F7F7F617F7F7F6700042908D008290F
:103E60000DD094F84130DBB2013B18BF0123E1E7EC
:103E700094F83F30DBB2013B18BF0123DAE794F836
:103E80004030DBB2013B18BF0123D3E7042805D043
:103E9000082807D0022384F84130D2E7022384F8AF
:103EA0003F30CEE7022384F84030CAE72268D36867
:103EB00043F00203D360012201462068FFF75EFF52
:103EC0002368244A93422ED02368224A93422FD05B
:103ED000B3F1804F2CD0A2F57C42934228D002F55A
:103EE0008062934224D002F58062934220D002F592
:103EF0009A3293421CD01A6842F001021A600020E4
:103F000024E02268D36843F00403D360D3E7226837
:103F1000D36843F00803D360CDE72268D36843F049
:103F20001003D360C7E75A6C42F400425A64CBE7EF
:103F30009A6802F00702062A09D01A6842F00102C4
:103F40001A60002002E0012000E0012010BD0020E6
:103F5000FCE700BF0000014038B505460C460C29BF
:103F60005FD8DFE801F0075E5E5E2A5E5E5E305E6F
:103F70005E5E36000268D36823F00203D36000223D
:103F800021462868FFF7FAFE2B68274A934226D07D
:103F90002B68196A41F21112114208D1196A40F2D4
:103FA0004442114203D11A6822F001021A602CBB6C
:103FB000012385F83E30002034E00268D36823F006
:103FC0000403D360DBE70268D36823F00803D360FF
:103FD000D5E70268D36823F01003D360CFE7196AEE
:103FE00041F211121142D3D1196A40F244421142F6
:103FF000CED15A6C22F400425A64C9E7042C06D090
:10400000082C09D0012385F8413000200AE0012363
:1040100085F83F30002005E0012385F8403000207E
:1040200000E0012038BD00BF0000014090F83C30A6
:10403000012B35D010B4012380F83C30022380F8E6
:104040003D3003685A689C6822F0700C0A6842EAA6
:104050000C025A600368134A934212D0B3F1804FA6
:104060000FD0A2F57C4293420BD002F580629342BE
:1040700007D002F58062934203D002F59A32934250
:1040800004D124F080044A6814439C60012380F822
:104090003D30002380F83C3018465DF8044B7047F3
:1040A000022070470000014090F83C30012B22D0E4
:1040B000012380F83C30CB6823F440738A681343B3
:1040C00023F480634A68134323F400630A681343AC
:1040D00023F480530A69134323F400534A691343BA
:1040E00023F48043CA69134302685364002380F8B1
:1040F0003C3018467047022070477047704702688E
:1041000002F10C0353E8003F23F490730C3242E8B1
:1041100000310029F3D1026802F1140353E8003F93
:1041200023F00103143242E800310029F3D1036B7C
:10413000012B05D0202380F8423000230363704711
:10414000026802F10C0353E8003F23F010030C3225
:1041500042E800310029F3D1ECE790F84130DBB2BE
:10416000212B01D0022070478368B3F5805F17D000
:10417000036A5A1C02621A7803685A60C38C9BB2A5
:10418000013B9BB2C3844BB90268D36823F0800320
:10419000D3600268D36843F04003D36000207047C7
:1041A0000369002BE4D1036A1B880268C3F3080388
:1041B0005360036A02330362E0E7000038B5044647
:1041C0000268136923F44053C1680B431361836889
:1041D0000269134342691343C2691A430168CB68F9
:1041E00023F4164323F00C031343CB600268536996
:1041F00023F4407381690B4353610368314A93424E
:1042000006D002F58062934202D0FFF7FBF901E08D
:10421000FFF708FAE369B3F5004F29D0002103182E
:1042200049411B1841F10001C90041EA5371DB000B
:10423000181863684FEA83024FEA937341F1000153
:10424000FCF7ACFC204DA5FB00325109642303FBB5
:1042500011031B013233A5FB03235B0903F0F002BA
:1042600002EB011203F00F03216813448B6038BD89
:104270000023021843EB0301121841F10001C900A9
:1042800041EA5271D200101841F10001626892189F
:104290005B41FCF783FC0C4DA5FB00325109642304
:1042A00003FB1103DB003233A5FB03235B095A0038
:1042B00002F4F87202EB011203F0070321681344C1
:1042C0008B60D4E7001001401F85EB512DE9F043CE
:1042D00083B005460E4617469946DDF828802C68BF
:1042E000246836EA04030CBF4FF0010C4FF0000CB9
:1042F000BC4528D1B8F1FF3FF1D0FEF7DBFBA0EBC6
:104300000900404523D8B8F1000F22D02B68DA68A5
:1043100012F0040FE3D0802EE1D0402EDFD01A68D7
:1043200012F0080FDBD0002401941A6801925B6838
:104330000193019B2846FFF7E2FE08236B6485F892
:104340004040012000E0002003B0BDE8F0830320DE
:10435000FAE70320F8E760B310B5044690F841305F
:1043600013B3242384F841302268D36823F4005324
:10437000D3602046FFF722FF2268136923F490439D
:1043800013612268536923F02A0353612268D368BA
:1043900043F40053D36000206064202384F841304C
:1043A00084F84230606310BD80F8403003F03EFA7C
:1043B000D7E7012070472DE9F04182B01E4690F802
:1043C0004130DBB2202B56D104460D4690460029E1
:1043D00055D00AB901204FE000234364212380F81F
:1043E0004130FEF767FB0746A4F82480A4F8268036
:1043F000A368B3F5805F02D04FF0000814E0236992
:104400002BB34FF000080FE0202384F84130032045
:1044100032E038F8023B2268C3F308035360E28CB1
:1044200092B2013A92B2E284E38C9BB293B10096CD
:104430003B46002280212046FFF748FF0028E3D1B9
:10444000002DE6D015F8012B23685A60E7E7A8464F
:104450000025E9E700963B46002240212046FFF771
:1044600035FF18B9202384F8413005E0202384F873
:104470004130032000E0022002B0BDE8F0810120BD
:10448000FAE7704708B50168CA6822F04002CA60BE
:10449000202280F84120FFF7F4FF002008BD70477C
:1044A00008B5806B0023C385C384FFF7F8FF08BD00
:1044B000704790F84230DBB2222B69D18368B3F5A4
:1044C000805F4FD0826AB3F5805F04D0002B56D155
:1044D0000369002B53D103685B681370836A01334F
:1044E0008362C38D9BB2013B9BB2C385002B51D12C
:1044F00000B583B00268D36823F02003D36002685C
:10450000D36823F48073D3600268536923F00103F6
:104510005361202380F8423000234363036B012B57
:1045200033D100230363026802F10C0353E8003F18
:1045300023F010030C3242E800310029F3D1036864
:104540001A6812F0100F06D0002201921A68019228
:104550005B680193019B818DFFF7AAFF002003B0E8
:104560005DF804FB0269002AACD1826A03685B68CB
:10457000C3F308031380836A02338362B1E70368DD
:104580005B6803F07F031370A8E701F079F8E5E7B3
:10459000022070470020704730B583B0044602689F
:1045A0001368D068516913F00F0505D113F0200F7F
:1045B00002D010F0200F19D12DB111F0010119D145
:1045C00010F4907F16D1216B01297DD013F0800F5C
:1045D00003D010F0800F40F0198113F0400F03D08A
:1045E00010F0400F40F0168103B030BD2046FFF7B9
:1045F00060FFF9E713F0010F06D010F4807F03D0BD
:10460000626C42F00102626413F0040F04D019B12D
:10461000626C42F00202626413F0020F04D019B11E
:10462000626C42F00402626413F0080F07D010F0CD
:10463000200F00D119B1626C42F008026264626C12
:10464000002AD1D013F0200F02D010F0200F29D172
:1046500023685B6903F04003626C12F0080F00D11D
:1046600063B32046FFF74BFD23685B6913F0400FEF
:1046700020D0226802F1140353E8003F23F04003E6
:10468000143242E800310029F3D1E36B73B1634A7D
:104690001A65E06BFEF7CAFA0028A5D0E06B036D3F
:1046A0009847A1E72046FFF704FFD1E72046FFF730
:1046B000F6FE99E72046FFF7F2FE95E72046FFF762
:1046C000EEFE002363648FE713F0100F3FF47EAF1C
:1046D00010F0100F3FF47AAF002301931368019399
:1046E00053680193019B536913F0400F52D0E26B62
:1046F00013685B689BB2002B3FF476AFA18D9942A3
:104700007FF672AFE385D369B3F5807F37D0226837
:1047100002F10C0353E8003F23F480730C3242E8AB
:1047200000310029F3D1226802F1140353E8003F5D
:1047300023F00103143242E800310029F3D122684A
:1047400002F1140353E8003F23F04003143242E81F
:1047500000310029F3D1202384F842300023236361
:10476000226802F10C0353E8003F23F010030C32DF
:1047700042E800310029F3D1E06BFEF70DFA022385
:104780006363A18DE38D9BB2C91A89B22046FFF7FE
:104790008FFE29E7A18DE38D9BB2C91A89B2E38D03
:1047A0009BB2002B3FF420AF00293FF41DAF2268DD
:1047B00002F10C0353E8003F23F490730C3242E8FB
:1047C00000300028F3D1226802F1140353E8003FBF
:1047D00023F00103143242E800300028F3D12023F3
:1047E00084F8423000232363226802F10C0353E86B
:1047F000003F23F010030C3242E800300028F3D1D0
:10480000022363632046FFF753FEEDE62046FFF7E1
:10481000A4FCE9E62046FFF735FEE5E6A1440008E2
:1048200081628285C28500234364222380F842305E
:10483000036923B10268D36843F48073D3600268CC
:10484000536943F0010353610268D36843F02003C6
:10485000D3600020704708B590F84230DBB2202BBF
:1048600008D149B10AB9012008BD00230363FFF74D
:10487000D7FFF9E70220F7E70120F5E700B583B09D
:10488000064B01930323009300238022044905482B
:10489000FDF7F6FA03B05DF804FB00BF1438012001
:1048A000E0FB0008F14F000810B582B0274B0193E0
:1048B0000324009400234FF4007225492548FDF796
:1048C000DFFA254B0193009400234FF480622349C3
:1048D0002348FDF7D5FA234B01930094002380224F
:1048E00021492248FDF7CCFA214B01930094002383
:1048F000802220492048FDF7C3FA204B0193009401
:10490000002380221E491F48FDF7BAFA1E4B01936F
:104910000094002380221D491D48FDF7B1FA1D4B6C
:1049200001930094002380221B491C48FDF7A8FA3C
:104930001B4B01930094002380221A491A48FDF76B
:104940009FFA0020FDF7D2FA02B010BD40380120D6
:10495000F4FB0008ED550008B838012000FC000801
:10496000796300081838012014FC00083D51000844
:104970002038012024FC0008A1510008283801201B
:1049800034FC0008055200083038012044FC0008BF
:10499000795200083838012054FC0008F152000810
:1049A0003C38012064FC0008C550000800B583B005
:1049B0008D4B40F2E732A3F8762040F6AC51D96631
:1049C0008A4919678A4B1B689A624FF4806189484B
:1049D000FEF720FA002800F08680834B00219966BC
:1049E000854A5A66012283F875208148FFF718FA34
:1049F00002E00120FDF7FCFC4FF480617D48FEF7EA
:104A000009FA0028F5D1784B41F658325A6601224E
:104A100083F8752000217648FFF702FA02E00120B2
:104A2000FDF7E6FC4FF480617248FEF7F3F90028C9
:104A3000F5D06D4B40F6E4429A660021596601229A
:104A400083F875206A48FFF7EBF902E00120FDF7D3
:104A5000CFFC654B93F87530012BF7D0624B0021EA
:104A6000D963012283F84D206448FFF7D9F902E0A9
:104A70000120FDF7BDFC5C4B93F84D30012BF7D0C6
:104A800000215E48FFF768FA5D4B01930323009312
:104A900000234FF400725B495B48FDF7F1F90A20EF
:104AA000FDF7A6FC504A002353619362D36313655C
:104AB0004FF47A61516607E0013303EB83014A4A00
:104AC00002EB810201215174052BF5DD0A20FDF76F
:104AD0008FFC4E4B1868FDF709FA0A20FDF788FC99
:104AE00003B05DF804FB4FF480614248FEF792F991
:104AF0000028F2D13C4B0021996641F658325A66A3
:104B0000012283F875203A48FFF78AF902E0012074
:104B1000FDF76EFC4FF480613648FEF77BF9002804
:104B2000F5D0314B40F6E4429A66002159660122E5
:104B300083F875202E48FFF773F902E00120FDF796
:104B400057FC294B93F87530012BF7D0264B41F2D7
:104B500088321A6440F2E732A3F84E200021D9636C
:104B6000012083F84D00254803689A62FFF758F941
:104B700002E00120FDF73CFC1B4B93F84D30012B6C
:104B8000F7D000211D48FFF7E7F91D4B01930323E0
:104B9000009300234FF400721A491B48FDF770F987
:104BA0000A20FDF725FC104A002353619362D3636A
:104BB00013654FF47A61516693670AE0013303EBA2
:104BC0008301094A02EB81020121517440F2E7316D
:104BD0005182052BF2DD0A20FDF70AFC0B4B186809
:104BE000FDF784F979E700BF8837012054F2FFFF11
:104BF000CC3A012000040240A8E4FFFF3C3A012027
:104C00008437012074FC0008A948000834380120CA
:104C100010B584B0FDF72CFA03904D4B40F2E7320B
:104C20005A8744F250621A6300225A6301214948AC
:104C3000FEF7F0F800284CD0454B40F6B8329A62A7
:104C40000021D962012283F83920434802685B8F32
:104C50009362FFF7E5F802E00120FDF7C9FB0121AF
:104C60003C48FEF7D7F80028F6D13B4C00212046FF
:104C7000FFF772F9364B394A9A62012283F83920DC
:104C800000212046FFF7CCF802E00120FDF7B0FB41
:104C900001213048FEF7BEF80028F6D000212E484A
:104CA000FFF75AF92A4A00239362D3622C4C0194ED
:104CB0000322009280222B492B48FDF7E1F823685C
:104CC00063B12A4B1868FDF711F90A20FDF790FB34
:104CD00004E001211F48FEF79DF828B1142103A824
:104CE000FDF72EFB04B010BD194B214A9A6200213A
:104CF000D962012283F83920174802685B8F9362DA
:104D0000FFF78EF802E00120FDF772FB0121114848
:104D1000FEF780F80028F6D000210F48FFF71CF9B5
:104D20000B4A00239362D3620D4C0194032200923C
:104D300080220C490C48FDF7A3F82368002BCDD046
:104D40000A4B1868FDF7D2F80A20FDF751FBC5E7BA
:104D50008837012000040240F439012018FCFFFFCD
:104D60002438012088FC0008754D00081C380120FB
:104D7000B0B9FFFF10B584B0FDF77AF903904D4B41
:104D800040F2E732A3F84E204FF47A525A640022E0
:104D90009A6402214848FEF73DF800284AD0454B66
:104DA00044F25062DA6300211964012283F84D2035
:104DB00042480268B3F84E309362FFF731F802E0E0
:104DC0000120FDF715FB02213B48FEF723F80028E0
:104DD000F6D13A4C00212046FFF7BEF8354B384A51
:104DE000DA63012283F84D2000212046FFF718F8EE
:104DF00002E00120FDF7FCFA02212F48FEF70AF835
:104E00000028F6D000212D48FFF7A6F8294A0023F4
:104E1000D36313642B4C01940322009280222A490D
:104E20002A48FDF72DF823684BB1294B1868FDF788
:104E30005DF804E002212048FDF7ECFF28B11421C1
:104E400003A8FDF77DFA04B010BD1A4B00211964C8
:104E5000204ADA63012283F84D2018480268B3F82B
:104E60004E309362FEF7DCFF02E00120FDF7C0FA4E
:104E700002211148FDF7CEFF0028F6D000210F488F
:104E8000FFF76AF80B4A0023D36313640D4C0194B7
:104E90000322009280220C490C48FCF7F1FF2368A2
:104EA000002BCCD00A4B1868FDF720F80A20FDF73C
:104EB0009FFAC4E788370120000402403C3A0120F1
:104EC000B0B9FFFF2C3801209CFC0008D94E000827
:104ED0002438012080C1FFFF10B584B0FDF7C8F869
:104EE00003903A4C41F28833E363012384F84D3058
:104EF00037480368B4F84E209A620021FEF790FF0D
:104F000042F2F033A365334BE36502E00120FDF785
:104F10006FFA2E4B93F84D30012BF7D004212E4819
:104F2000FDF778FF28B10A2103A8FDF709FA04B0BC
:104F300010BD264B0021596543F698221A6540F2B0
:104F4000E732A3F86220012083F861002348036858
:104F50009A62FEF765FF02E00A20FDF749FA042194
:104F60001D48FDF757FF0028F6D0184B42F22832B3
:104F70005A6500221A65012283F8612002E00120AF
:104F8000FDF736FA114B93F86130012BF7D0002171
:104F90001248FEF7E1FF124B019303230093002315
:104FA000802210491048FCF76BFF02E00120FDF75A
:104FB0001FFA0B4B1B68002BF8D00C4B1868FCF742
:104FC00095FF0A20FDF714FAADE700BF88370120EE
:104FD0003C3A012010DCFFFF00040240843A01202B
:104FE00034380120B0FC0008AD4900082C380120FD
:104FF000F0B583B02B4B42F6EC42DA612A4A1A62D2
:1050000000249C6147F230525A6140F2E732DA8460
:1050100005E080212548FDF7FDFEA0B93CBB8021BD
:105020002248FDF7F7FE0028F3D1002CF1D11D4BEB
:10503000012283F825201E480268DB8C9362002140
:10504000FEF7EEFEEAE7174E002586F82550184FCA
:1050500029463846FEF7A2FE42F6EC43B36175617D
:10506000012486F8254029463846FEF7D9FE0D4B27
:1050700093F82530002BD2D10E4D019503230093D8
:10508000002380220C490D48FCF7FAFE2B68002B08
:10509000C5D00B4B1868FCF729FF1420FDF7A8F9C1
:1050A000BDE700BF8837012014D3FFFF0000024096
:1050B000643901201C380120C4FC0008114C000890
:1050C0001438012000B583B0134B00249C67DC67C3
:1050D00040F2E732A3F88A20FCF7CAFF019022468B
:1050E00080210E48FDF79DFE0CE00D4803680A4A3A
:1050F000B2F88A209A620021FEF792FE0A2101A8E6
:10510000FDF71EF9044B93F88930012BEDD00021F7
:105110000348FEF743FEF1E7883701200004024010
:10512000143B0120026883689A4200DB0360026836
:10513000C3689A4200DC03607047000000B583B08A
:10514000144B42F6EC42DA61134A1A6200229A6169
:105150005A6140F2E732DA84FCF78AFF01900FE0EF
:105160000C4C04F11400FFF7DDFF0C480368E28CDF
:105170009A620021FEF754FE0A2101A8FDF7E0F82B
:10518000044B93F82530012BEAD000210348FEF7A9
:1051900005FEF1E78837012014D3FFFF64390120B1
:1051A00000B583B0144B40F2E7325A8742F6EC4226
:1051B0001A63124A5A63DA629A62FCF759FF019045
:1051C0000FE00D4C04F12800FFF7ACFF0C4803681A
:1051D000628F9A620021FEF723FE0A2101A8FDF7E3
:1051E000AFF8054B93F83930012BEAD00021044881
:1051F000FEF7D4FDF1E700BF883701209CE6FFFFF2
:10520000F439012000B583B0184B42F6CC125A6431
:10521000A2F57A529A641A64DA6340F2E732A3F88C
:105220004E20FCF725FF0190002210211048FDF7C9
:10523000F8FD10E00D4C04F13C00FFF773FF0D4842
:105240000368B4F84E209A620021FEF7E9FD0A21B6
:1052500001A8FDF775F8054B93F84D30012BE9D007
:1052600000210448FEF79AFDF1E700BF88370120CE
:10527000000002403C3A012000B583B0184B42F2D6
:10528000F0329A65174ADA6500245C651C6540F2C5
:10529000E732A3F86220FCF7EBFE019022460821DA
:1052A0001148FDF7BEFD10E00D4C04F15000FFF772
:1052B00039FF0E480368B4F862209A620021FEF7B5
:1052C000AFFD0A2101A8FDF73BF8054B93F86130CB
:1052D000012BE9D000210548FEF760FDF1E700BF92
:1052E0008837012010DCFFFF00000240843A0120D3
:1052F00000B583B0184B40F6AC52DA66174A1A670D
:1053000000245C669C6640F2E732A3F87620FCF746
:10531000AFFE0190224602211148FDF782FD10E008
:105320000D4C04F16400FFF7FDFE0E480368B4F86D
:1053300076209A620021FEF773FD0A2101A8FCF78E
:10534000FFFF054B93F87530012BE9D0002105488C
:10535000FEF724FDF1E700BF8837012054F2FFFF7C
:1053600000000240CC3A012008B50368914A9342FC
:105370002BD0B3F1804F54D08F4A93427CD08F4AC8
:10538000934200F0A4808E4A934200F0CF808D4A71
:1053900093421FD18C4B93F88930012B1AD18A4B41
:1053A000DA6F9B6F9A4200F0F0809A42C0F2F6806A
:1053B0009A420FDD01224FF480418448FDF731FD10
:1053C000814AD36F013BD36704E07F4B93F82530CC
:1053D000012B00D008BD7C4B9A695B699A420DD0C5
:1053E0009A4214DB9A42F5DD002220217748FDF72E
:1053F00018FD754A9369013B9361EBE700217448FE
:10540000FEF7AAFD704B002283F82520E2E7012277
:1054100020216E48FDF705FD6B4A936901339361C6
:10542000D8E7694B93F83930012BD3D1664BDA6A50
:105430009B6A9A420DD09A4214DB9A42CADD00223E
:1054400010216248FDF7EDFC5F4AD36A013BD3624D
:10545000C0E700215F48FEF77FFD5B4B002283F829
:105460003920B7E7012210215848FDF7DAFC564AE7
:10547000D36A0133D362ADE7534B93F84D30012B20
:10548000A8D1514B1A6CDB6B9A420DD09A4214DBB7
:105490009A429FDD012208214C48FDF7C2FC4A4A8E
:1054A000136C013B136495E700214B48FEF754FD54
:1054B000454B002283F84D208CE700220821434809
:1054C000FDF7AFFC404A136C0133136482E73E4B97
:1054D00093F86130012B7FF47DAF3B4B5A6D1B6D10
:1054E0009A420FD09A4216DB9A427FF773AF00229E
:1054F0004FF400413948FDF794FC334A536D013BAA
:10550000536567E700213648FEF726FD2E4B002243
:1055100083F861205EE701224FF400412F48FDF738
:1055200080FC294A536D0133536553E7264B93F8AA
:105530007530012B7FF44EAF234B9A6E5B6E9A420F
:105540000FD09A4216DB9A427FF744AF00224FF405
:1055500000411E48FDF765FC1B4A936E013B9366B4
:1055600038E700211F48FEF7F7FC174B002283F8AD
:1055700075202FE701224FF400411448FDF751FC3C
:10558000114A936E0133936624E700211648FEF713
:10559000E3FC0D4B002283F889201BE700224FF427
:1055A00080410A48FDF73DFC074AD36F0133D367BA
:1055B00010E700BF00000140000400400008004068
:1055C000000C0040004001408837012000040240E8
:1055D00064390120F43901203C3A012000000240E6
:1055E000843A0120CC3A0120143B012010B582B04E
:1055F000FCF73EFD019031E0013303EB83011C4ACF
:1056000002EB810200215174052BF5DD194B1B784B
:10561000412B13D032220021164802F0CDF900238D
:1056200016E0013404EB8402114B53F8222021468A
:10563000114802F013FA052CF3DDEBE70024FAE73A
:10564000013303EB83010A4A02EB81020121517409
:10565000052BF5DD642101A8FCF772FE074B1B78D2
:105660005BB2012BF6D10023044A1370CCE700BFD4
:105670008837012050380120D8FC00084C38012020
:1056800008B50368254A934203D0254A934222D0A5
:1056900008BD244B1A68511C1960234B1B78234802
:1056A0008354582B07D033290CD001221E4920489F
:1056B000FFF7D1F8ECE71F4B01221A70194B0022BB
:1056C0001A60F2E732220021184802F075F9154BF2
:1056D00000221A60E9E7184B1A68511C1960174B31
:1056E0001B7817488354582B07D033290CD001223C
:1056F00012491448FFF7AFF8CAE7134B01221A709A
:105700000D4B00221A60F2E7322200210C4802F011
:1057100053F9094B00221A60E9E700BF001001406D
:1057200000140140443801204D3801205038012038
:105730005C3B01204C38012048380120833801208F
:1057400084380120A43B01208238012070B54FF03D
:10575000000E7646754618E003EB8303ACF1300C7F
:105760000CEB43030EF1010E10F80EC0ACF1300447
:10577000E4B2092CF0D90EB15B42002641F8253085
:105780000EF1FF3E01350EF1010E10F80E4064B12E
:1057900095420ADAA4F13003DBB2092B03D92D2C90
:1057A000F1D10126EFE70023DEE770BD03680B604F
:1057B00003694B6090ED087A81ED027AD0ED007AB2
:1057C000D0ED036A67EEE67AD0ED046A90ED076AE1
:1057D00066EE866A77EEE67AD0ED0B6A27EE267AD9
:1057E00077EEC77AC1ED037A43680B6143694B6179
:1057F00090ED097A81ED067AD0ED017AD0ED036A59
:1058000067EEE67AD0ED056A90ED076A66EE866A85
:1058100077EEE67AD0ED0B6A27EE267A77EEC77A36
:10582000C1ED077A83680B6283694B6290ED0A7A57
:1058300081ED0A7AD0ED027AD0ED036A67EEE67A5E
:10584000D0ED066A90ED076A66EE866A77EEE67A34
:10585000D0ED0B6A27EE267A77EEC77AC1ED0B7A88
:1058600000230B634B638B634FF07E53CB63704716
:105870002DE9F8432DED048B04460D46C068FAF778
:1058800023FE41EC190B41EC100B08F0C5FA57EC64
:10589000106B2069FAF718FE41EC100B08F0BCFA07
:1058A00053EC102B30463946FAF766FE06460F4693
:1058B0006069FAF709FE41EC180B41EC100B08F097
:1058C000ABFA53EC102B30463946FAF755FE064634
:1058D0000F46B0EE490AF0EE690A08F0F1FA59EC09
:1058E000108BB0EE480AF0EE680A08F0E9FA53ECC3
:1058F000102B40464946FAF73FFE02460B4630461B
:105900003946FAF781FCFBF7F9F82860E068FAF706
:10591000DBFD41EC190B41EC100B08F07DFA53EC68
:10592000102B10EE106A03F100472069FAF7CCFD46
:1059300041EC100B08F070FA53EC102B304639464E
:10594000FAF71AFE06460F466069FAF7BDFD41EC0C
:10595000180B41EC100B08F0B3FA53EC102B304647
:105960003946FAF709FE06460F46B0EE490AF0EE50
:10597000690A08F0A5FA59EC108BB0EE480AF0EE6F
:10598000680A08F049FA53EC102B40464946FAF7EA
:10599000F3FD02460B4630463946FAF735FCFBF775
:1059A000ADF86860E068FAF78FFD41EC100B08F085
:1059B00033FA57EC106B2069FAF786FD41EC100BB7
:1059C00008F07EFA53EC102B30463946FAF7D4FD36
:1059D000FBF794F8A8602368EB60E068FAF774FDC1
:1059E00041EC190B41EC100B08F06AFA57EC106B04
:1059F0002069FAF769FD41EC100B08F00DFA53EC41
:105A0000102B30463946FAF7B7FD06460F46606957
:105A1000FAF75AFD41EC180B41EC100B08F0FCF9B9
:105A200053EC102B30463946FAF7A6FD06460F46D2
:105A3000B0EE490AF0EE690A08F0EEF959EC108B65
:105A4000B0EE480AF0EE680A08F03AFA53EC102B70
:105A500040464946FAF790FD02460B463046394625
:105A6000FAF7D4FBFBF74AF82861E068FAF72CFD57
:105A700041EC190B41EC100B08F022FA53EC102BFF
:105A800010EE106A03F100472069FAF71DFD41ECA2
:105A9000100B08F0C1F953EC102B30463946FAF7D9
:105AA0006BFD06460F466069FAF70EFD41EC180BD8
:105AB00041EC100B08F004FA53EC102B3046394639
:105AC000FAF75AFD06460F46B0EE490AF0EE690AAB
:105AD00008F0A2F959EC108BB0EE480AF0EE680A13
:105AE00008F09AF953EC102B40464946FAF744FD6A
:105AF00002460B4630463946FAF788FBFAF7FEFFB6
