:020000040800F2
:100000000000022059560008954C0008974C000843
:10001000994C00089B4C00089D4C00080000000013
:10002000000000000000000000000000F1080008CF
:100030009F4C00080000000091090008A14C000836
:10004000A9560008A9560008A9560008A956000894
:10005000A9560008A9560008A9560008A956000884
:10006000A9560008A9560008A9560008A956000874
:10007000A9560008A9560008A9560008A956000864
:10008000A9560008A9560008A9560008000000005B
:10009000000000000000000000000000A956000859
:1000A000B54C0008CD4C0008E54C0008FD4C00089C
:1000B0000D4D00081D4D00082D4D0008A9560008E3
:1000C000A9560008A9560008A9560008A956000814
:1000D000A95600083D4D0008A95600080000000080
:1000E000A9560008A9560008A956000800000000FB
:1000F000000000000000000000000000A9560008F9
:1001000000000000A95600084D4D0008A95600083F
:1001100000000000000000000000000000000000DF
:10012000A9560008A9560008A9560008A9560008B3
:10013000A9560008000000000000000000000000B8
:10014000000000000000000000000000A9560008A8
:10015000A9560008A9560008A95600085D4D0008D8
:10016000A9560008A9560008000000000000000081
:10017000000000000000000000000000000000007F
:1001800000000000A9560008000000000000000068
:08019000A9560008A956000859
:1001A00010B5054C237833B9044B13B10448AFF3B1
:1001B00000800123237010BD4404002000000000D3
:1001C0007858000808B5034B1BB103490348AFF347
:1001D000008008BD00000000480400207858000896
:1001E00053B94AB9002908BF00281CBF4FF0FF319E
:1001F0004FF0FF3000F074B9ADF1080C6DE904CE9A
:1002000000F006F8DDF804E0DDE9022304B07047F1
:100210002DE9F047089D04468E46002B4DD18A42B9
:10022000944669D9B2FA82F252B101FA02F3C2F1EC
:10023000200120FA01F10CFA02FC41EA030E94407D
:100240004FEA1C48210CBEFBF8F61FFA8CF708FB9E
:1002500016E341EA034306FB07F199420AD91CEB76
:10026000030306F1FF3080F01F81994240F21C81A8
:10027000023E63445B1AA4B2B3FBF8F008FB1033F0
:1002800044EA034400FB07F7A7420AD91CEB040425
:1002900000F1FF3380F00A81A74240F207816444F5
:1002A000023840EA0640E41B00261DB1D44000237A
:1002B000C5E900433146BDE8F0878B4209D9002DDE
:1002C00000F0EF800026C5E9000130463146BDE868
:1002D000F087B3FA83F6002E4AD18B4202D38242D2
:1002E00000F2F980841A61EB030301209E46002D81
:1002F000E0D0C5E9004EDDE702B9FFDEB2FA82F2D6
:10030000002A40F09280A1EB0C014FEA1C471FFA33
:100310008CFE0126200CB1FBF7F307FB131140EA1A
:1003200001410EFB03F0884208D91CEB010103F1E7
:10033000FF3802D2884200F2CB804346091AA4B2A9
:10034000B1FBF7F007FB101144EA01440EFB00FE7D
:10035000A64508D91CEB040400F1FF3102D2A645E2
:1003600000F2BB800846A4EB0E0440EA03409CE781
:10037000C6F12007B34022FA07FC4CEA030C20FA2E
:1003800007F401FA06F31C43F9404FEA1C4900FA4E
:1003900006F3B1FBF9F8200C1FFA8CFE09FB1811CB
:1003A00040EA014108FB0EF0884202FA06F20BD93E
:1003B0001CEB010108F1FF3A80F08880884240F28E
:1003C0008580A8F102086144091AA4B2B1FBF9F0D2
:1003D00009FB101144EA014100FB0EFE8E4508D9CD
:1003E0001CEB010100F1FF346CD28E456AD9023852
:1003F000614440EA0840A0FB0294A1EB0E01A14237
:10040000C846A64656D353D05DB1B3EB080261EBA4
:100410000E0101FA07F722FA06F3F1401F43C5E97E
:10042000007100263146BDE8F087C2F12003D840B4
:100430000CFA02FC21FA03F3914001434FEA1C47F6
:100440001FFA8CFEB3FBF7F007FB10360B0C43EAE8
:10045000064300FB0EF69E4204FA02F408D91CEB98
:10046000030300F1FF382FD29E422DD90238634496
:100470009B1B89B2B3FBF7F607FB163341EA034136
:1004800006FB0EF38B4208D91CEB010106F1FF3885
:1004900016D28B4214D9023E6144C91A46EA00467C
:1004A00038E72E46284605E70646E3E61846F8E60E
:1004B0004B45A9D2B9EB020864EB0C0E0138A3E757
:1004C0004646EAE7204694E74046D1E7D0467BE738
:1004D000023B614432E7304609E76444023842E7B0
:1004E000704700BF844641EA000313F003036DD157
:1004F000403A41D351F8043B40F8043B51F8043BE7
:1005000040F8043B51F8043B40F8043B51F8043BED
:1005100040F8043B51F8043B40F8043B51F8043BDD
:1005200040F8043B51F8043B40F8043B51F8043BCD
:1005300040F8043B51F8043B40F8043B51F8043BBD
:1005400040F8043B51F8043B40F8043B51F8043BAD
:1005500040F8043B51F8043B40F8043B51F8043B9D
:1005600040F8043B51F8043B40F8043B51F8043B8D
:1005700040F8043B403ABDD2303211D351F8043B2D
:1005800040F8043B51F8043B40F8043B51F8043B6D
:1005900040F8043B51F8043B40F8043B103AEDD2DC
:1005A0000C3205D351F8043B40F8043B043AF9D22D
:1005B000043208D0D2071CBF11F8013B00F8013B00
:1005C00001D30B8803806046704700BF082A13D30D
:1005D0008B078DD010F003038AD0C3F10403D21A25
:1005E000DB071CBF11F8013B00F8013B80D331F859
:1005F000023B20F8023B7BE7043AD9D3013A11F8D9
:10060000013B00F8013BF9D20B7803704B78437043
:100610008B78837060467047104A12F0070F1AD02B
:10062000D11D21F00701C1F5963313440A460C4849
:100630000260002141601344083B23F0070309488E
:10064000036059601960991A51601360064B196074
:10065000064B196070474FF49633E8E764040020B6
:1006600074300120600400206830012064300120D3
:10067000164B1A461B688342FBD3516802EB010CF0
:10068000844509D0416800EB010C634509D0036043
:10069000904219D010607047406801445160104684
:1006A000F0E710B40A4C2468A3420BD05B681944ED
:1006B000416013681B680360904200D010605DF8D1
:1006C000044B70470460F7E7704700BF74300120A7
:1006D0006004002070B5054600F028FF364B1B680B
:1006E0009BB13DB105F00703C3F11003DA43AA4201
:1006F0000ED31D44002D47DB002D47D02F4B1B6828
:10070000AB4252D32E4A146806E0FFF785FFE8E7B4
:100710000025EFE722461C466368AB4202D22368FD
:10072000002BF7D1244B1B68A34240D01668083633
:100730002368136063685B1B102B10D9601910F0DD
:10074000070F08D04FF0500383F31188BFF36F8F6A
:10075000BFF34F8FFEE743606560FFF789FF626874
:1007600016490B689B1A0B60164909688B4201D227
:1007700014490B6042F00042626000232360124A79
:1007800013680133136002E0002600E0002600F049
:1007900097FF16F0070F0CD04FF0500383F311882A
:1007A000BFF36F8FBFF34F8FFEE70026EFE7002602
:1007B000EDE7304670BD00BF6004002064300120CA
:1007C00074300120683001206C300120A8B338B5A6
:1007D0000446A0F1080550F8043C002B08DB4FF05C
:1007E000500383F31188BFF36F8FBFF34F8FFEE782
:1007F00050F8082C42B14FF0500383F31188BFF337
:100800006F8FBFF34F8FFEE7002B00DB38BD23F067
:10081000004340F8043C00F089FE54F8041C074AE9
:1008200013680B4413602846FFF722FF044A13683D
:100830000133136000F044FFE8E7704764300120A3
:100840007030012082B0002301930D4B1B68B3F17F
:10085000FF3F08D04FF0500383F31188BFF36F8F31
:10086000BFF34F8FFEE74FF0500383F31188BFF3C0
:100870006F8FBFF34F8F019B002BFCD002B07047EE
:100880000000002008480068006880F308884FF0E6
:10089000000080F3148862B661B6BFF34F8FBFF3D8
:1008A0006F8F00DF00BF000008ED00E0DFF80C00F4
:1008B000016841F4700101607047000088ED00E0BC
:1008C0004FF0807340F8043C21F0010140F8081C0F
:1008D000054B40F80C3C40F8202C6FF0020340F828
:1008E000243C4438704700BF450800080000000061
:1008F000074B19680868B0E8F04F80F30988BFF328
:100900006F8F4FF0000080F311887047AFF30080C5
:10091000C43001204FF0500383F31188BFF36F8F71
:10092000BFF34F8F0B4A136801331360012B00D0C4
:1009300070474FF0E023D3F8043D13F0FF0FF7D0DA
:100940004FF0500383F31188BFF36F8FBFF34F8FC6
:10095000FEE700BF00000020094B1B6843B94FF0C1
:10096000500383F31188BFF36F8FBFF34F8FFEE700
:10097000013B034A13600BB983F31188704700BF32
:100980000000002000000000000000000000000047
:10099000EFF30980BFF36F8F154B1A681EF0100F2D
:1009A00008BF20ED108A20E9F04F10602DE9090002
:1009B0004FF0500080F31188BFF34F8FBFF36F8F5C
:1009C00000F0A2FF4FF0000080F3118809BC196805
:1009D0000868B0E8F04F1EF0100F08BFB0EC108AA6
:1009E00080F30988BFF36F8F704700BFAFF30080BB
:1009F000C430012008B54FF0500383F31188BFF3D2
:100A00006F8FBFF34F8F00F09FFD28B14FF0E023B1
:100A10004FF08052C3F8042D002383F3118808BDE2
:100A20004FF0E022002313619361054B1B680549D9
:100A3000A1FB03139B09013B53610723136170471B
:100A400010000020D34D62104FF0E023D3F8002DAA
:100A50003D4B9A421CD04FF0E023D3F8002D3B4B86
:100A60009A421ED030B583B0394B1A78D2B2019277
:100A7000FF221A701B78DBB28DF803309DF803302B
:100A800003F05003334A1370334B07221A601BE004
:100A90004FF0500383F31188BFF36F8FBFF34F8F75
:100AA000FEE74FF0500383F31188BFF36F8FBFF35E
:100AB0004F8FFEE7284A1368013B13609DF803300F
:100AC0005B00DBB28DF803309DF8033013F0800F2C
:100AD000F0D1214B1B68032B08D04FF0500383F358
:100AE0001188BFF36F8FBFF34F8FFEE71B021A4AC7
:100AF000136003F4E0631360019BDBB2144A1370CC
:100B00004FF0E024D4F8203D43F47003C4F8203DB6
:100B1000D4F8203D43F07043C4F8203DFFF780FF38
:100B200000250E4B1D60FFF7C1FED4F8343F43F0A3
:100B30004043C4F8343FFFF7A5FE00F0E5FEFFF7A1
:100B400081FE284603B030BD71C20F4170C20F4113
:100B500000E400E07C300120803001200000002013
:100B6000EFF305830F2B0FD9114A9B5CDBB2114ABF
:100B700012789A4208D94FF0500383F31188BFF3DB
:100B80006F8FBFF34F8FFEE74FF0E023D3F80C3D9C
:100B900003F4E063084A1268934208D94FF0500307
:100BA00083F31188BFF36F8FBFF34F8FFEE770475A
:100BB000F0E300E07C3001208030012000F10803E8
:100BC00043604FF0FF328260C36003610023036023
:100BD000704700230361704743684B609A688A60DE
:100BE000516099600861036801330360704730B455
:100BF0000D68B5F1FF3F11D000F108031C465B689A
:100C00001A68AA42FAD963684B6099608C60616087
:100C1000086103680133036030BC70470469F2E780
:100C20000369416882688A60416851605A688242FB
:100C300006D0002202611A68013A1A6018687047EB
:100C400082685A60F5E710B50446FFF763FEA36BB0
:100C500023B90124FFF780FE204610BD0024F9E7E8
:100C60000346026C6AB110B50846D9681144D960D0
:100C70009C68A14201D31968D960D968FFF732FC9A
:100C800010BD704738B50546FFF744FE95F845405E
:100C900064B201E0013C64B2002C0ADD6B6A43B12E
:100CA00005F1240000F0BEFE0028F3D000F082FF22
:100CB000F0E7FF2385F84530FFF74EFEFFF72AFEE9
:100CC00095F8444064B201E0013C64B2002C0ADDB6
:100CD0002B6943B105F1100000F0A4FE0028F3D009
:100CE00000F068FFF0E7FF2385F84430FFF734FE9B
:100CF00038BD38B590B10D460446C36B2BB1026CBC
:100D00000021A3FB022393B999B14FF0500383F361
:100D10001188BFF36F8FBFF34F8FFEE74FF0500383
:100D200083F31188BFF36F8FBFF34F8FFEE701216D
:100D3000EAE7FFF7EFFD2368E26B216C01FB02306D
:100D4000A0600020A0636360013A02FB0133E3600E
:100D5000FF2384F8443084F84530B5B923691BB9C2
:100D6000FFF7FAFD012038BD04F1100000F05AFE33
:100D70000028F5D04FF0E0234FF08052C3F8042D47
:100D8000BFF34F8FBFF36F8FEAE704F11000FFF757
:100D900015FF04F12400FFF711FFE1E738B51D4608
:100DA000049C0B4649B92460E0632364012120467A
:100DB000FFF79FFF84F84C5038BD2260F4E7F0B590
:100DC00083B060B10C46174605460023A0FB041211
:100DD00072B923B904FB05F010F1510F0AD94FF095
:100DE000500383F31188BFF36F8FBFF34F8FFEE77C
:100DF0000123EEE75030FFF76DFC064638B1009056
:100E00003B4600F1500221462846FFF7C7FF304617
:100E100003B0F0BDF0B585B0019290B10F46044625
:100E2000C1B100F0CDFE064600BB019B002B5ED099
:100E30004FF0500383F31188BFF36F8FBFF34F8FD1
:100E4000FEE74FF0500383F31188BFF36F8FBFF3BA
:100E50004F8FFEE7036C002BE3D04FF0500383F37A
:100E60001188BFF36F8FBFF34F8FFEE700263EE080
:100E700039462046FFF7F4FE013DA563236923B9F7
:100E8000FFF76AFD012005B0F0BD04F1100000F08D
:100E9000C9FD0028F4D04FF0E0234FF08052C3F892
:100EA000042DBFF34F8FBFF36F8FE9E7FFF754FDBA
:100EB0000020E8E702A800F02DFE012621E0002333
:100EC00084F8443029E0002384F845302BE02046A4
:100ED000FFF7D8FE00F0F4FB09E02046FFF7D2FE52
:100EE00000F0EEFB2046FFF7AEFE00283FD1FFF7F3
:100EF00011FDA56B002DBBD1019B002BD6D0002E80
:100F0000D8D0FFF729FD00F011FBFFF703FD94F89F
:100F100044305BB2B3F1FF3FD1D094F845305BB2BF
:100F2000B3F1FF3FCFD0FFF717FD01A902A800F0F2
:100F3000FDFD0028D1D12046FFF785FE0028C6D050
:100F4000019904F1240000F02BFD2046FFF79AFEE2
:100F500000F0B6FB0028CAD14FF0E0234FF08052DA
:100F6000C3F8042DBFF34F8FBFF36F8FBFE700208F
:100F700089E7000030B110B40C4601468CB1002066
:100F8000034612E04FF0500383F31188BFF36F8FD5
:100F9000BFF34F8FFEE70E4800EBC30008B10460BB
:100FA00041605DF8044B70470133072BF6D8084ABF
:100FB00002EBC30252688A42EDD00028F4D1044A01
:100FC00052F83320002AEFD1014800EBC300EBE7D1
:100FD0008430012070B504460D461646FFF79AFC92
:100FE00094F844305BB2B3F1FF3F0DD094F8453034
:100FF0005BB2B3F1FF3F0BD0FFF7AEFCA36B5BB16D
:101000002046FFF73FFE70BD002384F84430EDE733
:10101000002384F84530EFE73246294604F12400E6
:1010200000F0D6FCECE70000074B1B681B6823B9F7
:10103000064B4FF0FF321A607047034B1B68DB68AA
:101040001A68024B1A607047C830012074310120C1
:1010500010B50446006BFFF7B9FB2046FFF7B6FB5F
:1010600010BD2DE9F84380460C4616469946089F68
:101070000A9D9200A521286B04F03CFB2A6B06F127
:101080008043013B02EB830323F007066CB100228F
:101090000E2A07D8A15CAB1883F83410A15C09B103
:1010A0000132F5E7002385F84230042F08D94FF0CC
:1010B000500383F31188BFF36F8FBFF34F8FFEE7A9
:1010C000EF62EF64281DFFF784FD05F11800FFF7BC
:1010D00080FD2D61C7F10507AF616D624A4641464B
:1010E0003046FFF7EDFB2860099B03B11D60BDE8AA
:1010F000F883000038B5002407E004EB8402930075
:101100000E481844FFF75AFD0134042CF5D90C4D54
:101110002846FFF753FD0B4C2046FFF74FFD0A48CA
:10112000FFF74CFD0948FFF749FD0948FFF746FD69
:10113000084B1D60084B1C6038BD00BFD03001203B
:10114000483101205C31012080310120AC31012087
:1011500098310120C8300120CC30012010B5044660
:10116000FFF7D8FB294A136801331360284B1B682B
:101170005BB1284B1B686BB9254B1B68DA6AE36AC5
:101180009A4207D8224B1C6004E0214B1C60136874
:10119000012B37D0204A1368013313606364E36A7C
:1011A00001229A401D49086802430A601C4A03EB69
:1011B000830302EB83035B68A3609868E060211DF2
:1011C00041609960E36A03EB8301880002EB8101CF
:1011D0006161115801311150FFF7BEFB0D4B1B68C7
:1011E0007BB10B4B1B68DA6AE36A9A4209D24FF073
:1011F000E0234FF08052C3F8042DBFF34F8FBFF3AD
:101200006F8F10BDFFF776FFC4E700BF34310120B8
:10121000C4300120943101204031012044310120AB
:10122000D03001200F4B1B68D3B110B5FFF772FB14
:101230000D4BDB68DC68201DFFF7F2FC0B4A1368DE
:10124000013B1360074A1368013B1360FFF784FBFF
:101250002046FFF7FDFE034B1B68002BE6D110BDB7
:10126000704700BF38310120AC31012034310120FA
:1012700008B5FFF7D7FF074B1B68012BF9D94FF0D3
:10128000E0234FF08052C3F8042DBFF34F8FBFF31C
:101290006F8FEEE7D030012070B504460D46244B29
:1012A0001E68244B18680430FFF7BAFC50B9214B74
:1012B0001B68DA6A012303FA02F21F490B6823EA6A
:1012C00002030B60B4F1FF3F0DD03444194B1B688F
:1012D0005C60A6421DD9194B1868164B1968043179
:1012E000FFF785FC70BD002DEFD0154A5168114BFA
:1012F0001868816018688C68C46018680430606081
:101300001868043088601B685A61136801331360E1
:10131000E8E70C4B1868074B19680431FFF767FCC6
:10132000094B1B68A342DDD9074B1C60DAE700BFFD
:10133000C0310120C430012044310120CC300120D3
:1013400098310120C8300120743101202DE9F0438B
:1013500085B00746884614461E469000FFF7BAF946
:1013600010B381465C20FFF7B5F90546C0B15C2299
:10137000002104F0BFF9C5F83090D5B100230393E4
:1013800002950D9B01930C9B0093334622464146E8
:101390003846FFF766FE2846FFF7E0FE012005E02D
:1013A0004846FFF713FAE8E74FF0FF3005B0BDE815
:1013B000F0834FF0FF30F9E738B50446FFF7AAFA9B
:1013C000002C37D0251D2846FFF72AFC68B9E26AB1
:1013D00002EB82039B002949CB5833B90123934088
:1013E00027490A6822EA03020A60A36A1BB104F1D2
:1013F0001800FFF715FC234A136801331360224BD2
:101400001B68A34219D0214A1368013B1360FFF700
:101410000BFEFFF7A1FA1C4B1B68A34202D020462B
:10142000FFF716FE1A4B1B681BB1174B1B68A34234
:101430000CD038BD144B1C68C4E729461548FFF78B
:10144000CBFB154A136801331360E2E7134B1B68AB
:1014500043B14FF0500383F31188BFF36F8FBFF395
:101460004F8FFEE74FF0E0234FF08052C3F8042D7A
:10147000BFF34F8FBFF36F8FDBE700BFD03001208A
:101480004431012040310120C43001203431012099
:1014900094310120AC310120383101203C31012050
:1014A00000B583B01A4B019300230093822219499F
:1014B0001948FFF74BFF012809D001280AD0B0F1E5
:1014C000FF3F1CD0154B1B6803B05DF804FB00F018
:1014D000E7FDF2E74FF0500383F31188BFF36F8FFE
:1014E000BFF34F8F0E4B4FF0FF321A600D4B0122AE
:1014F0001A600D4B00221A60FFF7A6FAE2E74FF0E0
:10150000500383F31188BFF36F8FBFF34F8FFEE754
:10151000703101209058000871120008040000206A
:101520007431012094310120C0310120024A136836
:1015300001331360704700BF3C310120014B186834
:10154000704700BFC0310120F8B5524B1B68002B1B
:1015500040F09980504B1C6801341C60C4B94F4B5B
:101560001B681B6843B14FF0500383F31188BFF32E
:101570006F8FBFF34F8FFEE7484A1168484B1868DA
:1015800010601960474A136801331360FFF74CFD80
:10159000454B1B68A34211D90020444B1B68DB6AF2
:1015A00003EB83039A00424B9B58012B00D9012087
:1015B000404B1B68002B6BD0012069E0002037E016
:1015C000394B4FF0FF321A60E7E7374B1A60E4E718
:1015D000D968516042E000219962116801391160B7
:1015E000DA6A01219140344E37683943316030491D
:1015F00002EB82024FEA820C8C44DCF804209A60F1
:101600009668DE6075609560DA6A02EB820C4FEADC
:101610008C054E195E614D5901354FEA8C0C41F82D
:101620000C50DA6A214B1B68DB6A9A4200D9012010
:101630001A4B1B681B68002BC2D0184B1B68DB6859
:10164000DB685A689442C0D35A699D68D968A9601A
:101650009D684D6051681D1DA942B9D00021596196
:101660001168013911609A6A002AB9D0DE69196AD5
:10167000B160DE694E60566803F118018E42AAD14E
:10168000196A5160A7E70D4A1368013313600020FF
:10169000F8BD00BF3C310120C0310120C83001201D
:1016A000CC3001207831012074310120C430012078
:1016B000D0300120C4310120443101207C3101208F
:1016C00038B54A4B1B6843B94FF0500383F3118878
:1016D000BFF36F8FBFF34F8FFEE7FFF71BF9434B4D
:1016E0001A68013A1A601B68002B7AD1404B1B68BC
:1016F0003BB9002476E0196A516015E0D968516061
:1017000021E000233B4A1268002A47D0394BDB68AE
:10171000DB689A6AD869196A8160D869486050683C
:1017200003F118018842E6D000219962116801395D
:1017300011605A699868D9688160986848605168F2
:10174000181D8142DAD000215961116801391160F8
:10175000DA6A01219140284C2568294321602749F4
:1017600002EB820201EB820252689A609468DC60AC
:1017700060609060DA6A02EB8200840001EB800016
:101780005861085901300851D96A1D4A1268D26A55
:101790009142B7D31B4A01211160B3E70BB1FFF7A8
:1017A00043FC194B1C6884B9164B1C68D4B14FF02C
:1017B000E0234FF08052C3F8042DBFF34F8FBFF3E7
:1017C0006F8F01240EE0013C07D0FFF7BDFE00281B
:1017D000F9D00C4B01221A60F5E70B4B00221A607E
:1017E000E2E70024FFF7B8F8204638BD3C3101207D
:1017F000343101208031012044310120D0300120DA
:10180000C4300120C43101207C31012038B558B1E9
:101810000C46054689B94FF0500383F31188BFF396
:101820006F8FBFF34F8FFEE74FF0500383F31188A4
:10183000BFF36F8FBFF34F8FFEE71E4B1B6843B1A3
:101840004FF0500383F31188BFF36F8FBFF34F8FB7
:10185000FEE7FFF76BFE184B18682B681C448342A9
:101860000BD9A34202D82C60002410E0A04202D37E
:101870002C6000240BE02C6004E0A34201D8A042BD
:1018800014D22C600021201AFFF706FD0124FFF777
:1018900017FF48B94FF0E0234FF08052C3F8042DF2
:1018A000BFF34F8FBFF36F8F204638BD2C600024ED
:1018B000EDE700BF3C310120C031012010B5A8B1D7
:1018C0000446104B1B6843B14FF0500383F311885B
:1018D000BFF36F8FBFF34F8FFEE7FFF727FE0021A7
:1018E0002046FFF7D9FCFFF7EBFE48B94FF0E023A5
:1018F0004FF08052C3F8042DBFF34F8FBFF36F8FAB
:1019000010BD00BF3C310120204B1B681BB1204B98
:1019100001221A6070471E4B00221A601D4B1B6883
:10192000B3FA83F3DBB2C3F11F0303EB83018A0035
:1019300019498A5842B94FF0500383F31188BFF315
:101940006F8FBFF34F8FFEE7134903EB83008200D5
:101950000A4450684068506003EB830C4FEA8C02E5
:1019600008321144884209D003EB83039A000A4BE2
:1019700013445B68DA68094B1A6070474068624636
:101980009100054A0A445060EEE700BF3C31012057
:10199000C431012044310120D0300120C430012065
:1019A00058B110B50C46094A11681831FFF71FF9F4
:1019B00001212046FFF770FC10BD4FF0500383F368
:1019C0001188BFF36F8FBFF34F8FFEE7C430012044
:1019D00038B5D8B18C46114605464268104B186898
:1019E000C2611868946804621868183060601868EA
:1019F000183090601B689D622B6801332B6009B121
:101A00004FF0FF3C6046FFF747FC38BD4FF05003F6
:101A100083F31188BFF36F8FBFF34F8FFEE700BFD3
:101A2000C4300120C368DB68002B4AD030B49A6A06
:101A3000D869196A8160D8694860516803F1180053
:101A4000814247D0002199621168013911602B4A07
:101A50001268002A44D15A699868D96881609868E8
:101A600048605168181D814237D0002159611168C2
:101A700001391160DA6A01219140214C256829431E
:101A80002160204902EB820201EB820252689A60D7
:101A90009468DC6060609060DA6A02EB8200840027
:101AA00001EB80005861085901300851DA6A164B81
:101AB0001B68DB6A9A421FD90120144B186030BCA6
:101AC00070474FF0500383F31188BFF36F8FBFF35C
:101AD0004F8FFEE7196A5160B4E7D9685160C4E7D7
:101AE0000B4A5168D9618C681C62606088609A6298
:101AF000116801311160D9E70020E0E73C31012095
:101B000044310120D0300120C4300120C4310120F3
:101B100080310120034B1B680360034B1B6843604B
:101B2000704700BF78310120C0310120F8B5B8B14D
:101B30000C460546E9B1FEF7EDFE1C4B19686B68D3
:101B4000C81A2268B2F1FF3F2AD0194E36682F68B2
:101B5000B74217D08B4215D800232360012420E020
:101B60004FF0500383F31188BFF36F8FBFF34F8F94
:101B7000FEE74FF0500383F31188BFF36F8FBFF37D
:101B80004F8FFEE7824203D800232360012408E040
:101B90005B1A134423602846FFF7BCFF002400E0D3
:101BA0000024FEF7D9FE2046F8BD00BFC031012059
:101BB00078310120014B01221A607047C4310120A5
:101BC000054B1B6833B1054B1B680BB100207047F8
:101BD0000220704701207047943101203C310120E0
:101BE000F8B568B10C4617461D46064689B14FF058
:101BF000500383F31188BFF36F8FBFF34F8FFEE75E
:101C00004FF0500383F31188BFF36F8FBFF34F8FF3
:101C1000FEE7FEF7A5FFEFF311814FF0500383F3CA
:101C20001188BFF36F8FBFF34F8F069B33B104F161
:101C3000140306EB83035B68069A1360331993F869
:101C40005820D2B2022083F85800042D26D8DFE8AD
:101C500005F031030C151C0004F1140306EB83039B
:101C6000586807435F60012025E004F1140306EB88
:101C7000830358680130586001201CE004F114030C
:101C800006EB83035F60012015E0022A18D004F1FF
:101C9000140306EB83035F6001200CE0384B1B68E4
:101CA00083B14FF0500383F31188BFF36F8FBFF3FD
:101CB0004F8FFEE70120012A06D081F31188F8BD7D
:101CC0000020F8E70120F6E7B36A43B14FF0500374
:101CD00083F31188BFF36F8FBFF34F8FFEE7294B5C
:101CE0001B68002B3DD17369B268F4689460F26898
:101CF000B46854605A68341DA2422FD00022726129
:101D00001A68013A1A60F36A01229A401E4D2F6840
:101D10003A432A601D4A03EB830302EB83035B68AB
:101D2000B3609D68F5606C609C60F36A03EB8304AC
:101D3000A50002EB84047461545901345451F26AD1
:101D4000134B1B68DB6A9A42B7D9079B13B1012377
:101D5000079A13600F4B01221A60AEE7F2685A60CF
:101D6000CCE70D4B5A68F2619568356206F11804AC
:101D70006C609460B3621A6801321A60DFE700BFDA
:101D8000C03101203C31012044310120D0300120FC
:101D9000C4300120C431012080310120064B1A6873
:101DA00013682BB90123036023B9D36818687047FF
:101DB0000023F8E700207047C831012008B54160D2
:101DC000006191420CD8D21A83699A4201D3012052
:101DD00008BD011D094B1868FEF709FF0020F7E751
:101DE0009A4201D2994206D2011D054B1868FEF7AE
:101DF000FEFE0020ECE70120EAE700BFCC31012025
:101E0000C831012070B504460D46164604E0A369AA
:101E10001D44236A20469847A1692B46324629442F
:101E20002046FFF7CBFF0028F1D170BD70B5054605
:101E30000E460D4B1B68DB68DC68201DFEF7F0FECC
:101E400094F8283013F0040F07D123F0010384F82D
:101E50002830236A2046984770BD324629462046DE
:101E6000FFF7D0FFF5E700BFC831012008B505E056
:101E7000DB684FF0FF311868FFF7D8FF054B1B6890
:101E80001A68002AF4D1044A1068024908601360F5
:101E900008BD00BFC8310120CC31012038B505464E
:101EA000FFF74CFB0446074B1B68834205D8002311
:101EB0002B60044B1C60204638BDFFF7D7FF012381
:101EC0002B60F6E7F831012070B582B006460C466B
:101ED000FFF72CFB01A8FFF7E1FF019B33BB054691
:101EE0000CB9B04219D224B1124A12681268DAB998
:101EF00001242246711B104B1868FFF76BF8FFF79F
:101F0000DFFBA8B94FF0E0234FF08052C3F8042D57
:101F1000BFF34F8FBFF36F8F0AE0FFF7D1FB294666
:101F20003046FFF783FF03E01C46E2E7FFF7C8FBFC
:101F300002B070BDCC310120FC31012030B585B03C
:101F4000002201A9384B1868FEF764FF002869D009
:101F5000019B002BF4DB039C636913B1201DFEF78A
:101F60005FFE6846FFF79AFF0546019B013B082B81
:101F7000E6D8DFE803F005052930490505293000DA
:101F800094F8283043F0010384F82830029BA169BB
:101F9000024619442046FFF711FF0028D0D094F8DC
:101FA000283013F0040F07D123F0010384F8283000
:101FB000236A20469847C3E7A3692A460299194431
:101FC0002046FFF71FFFF3E794F8283023F00103C2
:101FD00084F82830B4E794F8283043F0010384F8FB
:101FE00028300299A16131B10346024601442046DE
:101FF000FFF7E4FEA4E74FF0500383F31188BFF32B
:102000006F8FBFF34F8FFEE794F8283013F0020F65
:1020100004D023F0010384F8283091E72046FEF72E
:10202000D5FB8DE705B030BDFC31012000B583B094
:1020300001A8FFF7B3FE0199FFF746FFFFF77EFF08
:10204000F6E7000038B5FEF765FC0F4B1B6813B1CF
:10205000FEF782FC38BD0D4D2846FEF7AFFD0C4C57
:102060002046FEF7ABFD0B4B1D600B4B1C600022A6
:102070000C210A20FEF7A3FE034B18600028E7D0CE
:102080000649FEF777FFE3E7FC310120D03101205C
:10209000E4310120C8310120CC31012098580008DA
:1020A00000B583B0FFF7CEFF0D4B1B685BB10D4B46
:1020B00001930223009300234FF482720A490B48D4
:1020C000FFF744F940B94FF0500383F31188BFF391
:1020D0006F8FBFF34F8FFEE703B05DF804FB00BFC7
:1020E000FC31012000320120A05800082D200008FA
:1020F00008B50B4B1A6842F400721A601A6842F471
:1021000080621A601A6842F480721A60032000F03C
:102110001BF8002002F072FD02F054FD002008BD03
:10212000003C0240034A1168034B1B780B441360C8
:10213000704700BF0432012008000020014B1868DE
:10214000704700BF04320120074AD36823F4E063DC
:102150001B041B0C000200F4E060034343F0BF6368
:1021600043F40033D360704700ED00E000B5194B35
:10217000DB68C3F30223C3F1070CBCF1040F28BFD3
:102180004FF0040C03F1040EBEF1060F18D9033B07
:102190004FF0FF3E0EFA0CFC21EA0C0199400EFABA
:1021A00003F322EA0303194300280BDB0901C9B238
:1021B00000F1604000F5614080F800135DF804FB19
:1021C0000023E5E700F00F000901C9B2024B1954E2
:1021D000F4E700BF00ED00E014ED00E0002807DBAD
:1021E00000F01F02400901239340024A42F82030C8
:1021F000704700BF00E100E070B50446866DFFF750
:102200009DFF94F83530DBB2022B06D08023636546
:10221000002384F83430012070BD0546226813681D
:1022200023F0160313602268536923F0800353617F
:10223000236CE3B12268136823F00803136022685B
:10224000136823F00103136023681B6813F0010F68
:1022500011D0FFF773FF431B052BF5D920236365CE
:10226000032084F83500002384F83430D4E7A36CCD
:10227000002BDFD1E3E7E26D3F239340B3600123FE
:1022800084F83530002084F83400C5E790F8353004
:10229000DBB2022B03D08023436501207047052366
:1022A00080F835300268136823F0010313600020C2
:1022B0007047000000230F2B00F2D28070B582B06F
:1022C00060E085685E000324B44025EA0405CC681C
:1022D000B4402C438460456825EA02054C68C4F389
:1022E00000129A402A4342605AE0DC08083450F851
:1022F000246003F0070295000F22AA4026EA020E8E
:102300000A69AA4042EA0E0240F824205CE0042256
:1023100000E0002202FA0EF22A430234514D45F841
:102320002420514A94686FEA0C0224EA0C054E6896
:1023300016F4801F01D04CEA04054B4CA560E468FC
:1023400002EA04054E6816F4001F01D04CEA0405A9
:10235000454CE560646802EA04054E6816F4003FE7
:1023600001D04CEA0405404C6560246822404D6869
:1023700015F4803F01D04CEA04023B4C226001334B
:102380000F2B6BD801229A400C6804EA020C32EA47
:102390000404F4D14C6804F00304013C012C90D9EE
:1023A0004A6802F00302032A09D0C4685D000322D0
:1023B000AA4024EA02048A68AA402243C2604A680A
:1023C00002F00302022A90D004684FEA430E03226F
:1023D00002FA0EF224EA02044A6802F0030202FA48
:1023E0000EF2224302604A6812F4403FC7D0002236
:1023F00001921E4A546C44F480445464526C02F4BA
:1024000080420192019A9C08A51C164A52F8255058
:1024100003F003024FEA820E0F2202FA0EF225EABF
:102420000205134A90423FF474AF02F58062904275
:102430000ED002F5806290420CD002F5806290428C
:102440000AD002F5806290423FF461AF072261E753
:1024500001225FE702225DE703225BE702B070BD65
:10246000704700BF00380140003C01400038024086
:10247000000002400369194201D00120704700208A
:1024800070470AB1816170470904816170474369EF
:1024900001EA030221EA030141EA02418161704736
:1024A000002800F0CC8070B5044690F83D30002B39
:1024B00077D0242384F83D302268136823F0010389
:1024C00013602268136843F40043136022681368A2
:1024D00023F40043136000F0C5FB62685A4B9A4234
:1024E00064D85A4B98428CBF00230123002B40F044
:1024F000A8805749A1FB00318B0C25686A6822F03F
:102500003F0242EA91426A6021680A6A22F03F0271
:1025100066684D4DAE424FD8013313430B622168BC
:10252000CA6922F44F4222F0FF026668464B9E427F
:102530004CD8431E7600B3FBF6F3013340F6FC7033
:10254000034278D0C3F30B031343CB6121680B68BC
:1025500023F0C003E269206A024313430B60216841
:102560008B6823F4034323F0FF032269E0680243EE
:1025700013438B602168CB6823F0FF036269A06975
:1025800002431343CB602268136843F001031360D6
:1025900000202064202384F83D30206384F83E002E
:1025A00070BD80F83C3002F001FA82E7294B984276
:1025B0008CBF0023012399E74FF4967505FB03F3C5
:1025C000254DA5FB03539B090133A6E7A368BBB9BF
:1025D000451E06EB460CB5FBFCF50135C5F30B05B6
:1025E000B5FA85F56D0945BBC3B9013806EB46035D
:1025F000B0FBF3F30133C3F30B0343F40043A3E74E
:10260000451E06EB860C0CEB8C0CB5FBFCF501357E
:10261000C5F30B05B5FA85F56D09E4E7013806EB5E
:10262000860303EB8303B0FBF3F30133C3F30B0324
:1026300043F4404388E7042386E7012384E701202D
:1026400070470120ACE700BFA08601007F841E0018
:1026500083DE1B43FF083D00D34D6210002800F0CD
:10266000E08170B582B00446036813F0010F3BD0DF
:102670009F4B9B6803F00C03042B2CD09C4B9B6856
:1026800003F00C03082B21D06368B3F5803F4FD0D3
:10269000B3F5A02F52D0964B1A6822F480321A60FC
:1026A0001A6822F480221A606368002B50D0FFF76A
:1026B00045FD05468E4B1B6813F4003F14D1FFF710
:1026C0003DFD401B6428F5D90320B1E1884B5B68D0
:1026D00013F4800FD8D0864B1B6813F4003F03D04F
:1026E0006368002B00F09F81236813F0020F54D021
:1026F0007F4B9B6813F00C0F3ED07D4B9B6803F023
:102700000C03082B33D0E368002B68D0794B0122EF
:102710001A60FFF713FD0546754B1B6813F0020F97
:1027200054D1FFF70BFD401B0228F5D903207FE1B0
:102730006F4A136843F480331360B5E76C4B1A6833
:1027400042F480221A601A6842F480321A60ABE7C1
:10275000FFF7F4FC0546664B1B6813F4003FC3D03B
:10276000FFF7ECFC401B6428F5D9032060E1604BC7
:102770005B6813F4800FC6D15D4B1B6813F0020F2A
:1027800003D0E368012B40F05081594A136823F0CD
:10279000F803216943EAC1031360236813F0080FAB
:1027A00042D063696BB3534B0122C3F8802EFFF70D
:1027B000C5FC05464E4B5B6F13F0020F34D1FFF79B
:1027C000BDFC401B0228F5D9032031E1484A1368BB
:1027D00023F0F803216943EAC1031360DDE7454BA9
:1027E00000221A60FFF7AAFC0546414B1B6813F054
:1027F000020FD2D0FFF7A2FC401B0228F5D903201C
:1028000016E13C4B0022C3F8802EFFF797FC0546EB
:10281000374B5B6F13F0020F06D0FFF78FFC401BA6
:102820000228F5D9032003E1236813F0040F77D0C1
:102830002F4B1B6C13F0805F33D1002301932C4B83
:102840001A6C42F080521A641B6C03F0805301939F
:10285000019B0125284B1B6813F4807F23D0A368BC
:10286000012B34D0052B38D0214B1A6F22F00102F6
:102870001A671A6F22F004021A67A368002B3DD072
:10288000FFF75CFC06461A4B1B6F13F0020F46D194
:10289000FFF754FC801B41F288339842F3D90320A0
:1028A000C6E00025D6E7144A136843F4807313602A
:1028B000FFF744FC0646104B1B6813F4807FCED113
:1028C000FFF73CFC801B0228F5D90320B0E0084A42
:1028D000136F43F001031367CFE7054B1A6F42F004
:1028E00004021A671A6F42F001021A67C5E700BFB7
:1028F000003802400000474200700040FFF71EFC15
:102900000646524B1B6F13F0020F08D0FFF716FC60
:10291000801B41F288339842F3D9032088E0EDB957
:10292000A369002B00F08380484A926802F00C02F1
:10293000082A51D0022B17D0454B00221A66FFF708
:10294000FDFB0446414B1B6813F0007F42D0FFF7AC
:10295000F5FB001B0228F5D9032069E03B4A136C04
:1029600023F080531364DBE7394B00221A66FFF72C
:10297000E5FB0546354B1B6813F0007F06D0FFF7DB
:10298000DDFB401B0228F5D9032051E0E369226AF0
:102990001343626A43EA8213A26A5208013A43EA85
:1029A0000243E26A43EA0263284A5360284B012249
:1029B0001A66FFF7C3FB0446244B1B6813F0007F25
:1029C00006D1FFF7BBFB001B0228F5D903202FE03F
:1029D00000202DE000202BE0012B2BD01B4B5B684F
:1029E00003F48001E269914226D103F03F02216A9B
:1029F0008A4223D1616A47F6C0721A40B2EB811F46
:102A00001ED103F44031A26A5208013AB1EB024FE1
:102A100018D103F07063E26AB3EB026F14D10020A7
:102A200006E001207047012002E0012000E00020C4
:102A300002B070BD0120FBE70120F9E70120F7E7B4
:102A40000120F5E70120F3E70120F1E7003802401B
:102A50000000474208B5254B9B6803F00C03042B8C
:102A60003FD0082B3FD1214B5A6802F03F025B68F0
:102A700013F4800F12D01D4B5968C1F388111C4804
:102A80000023A1FB0001FDF7ABFB184B5B68C3F310
:102A9000014301335B00B0FBF3F025E0134B5968B1
:102AA000C1F3881C4FEA4C11B1EB0C006EEB0E0E1B
:102AB0004FEA8E1343EA90638101091A63EB0E0318
:102AC000DB0043EA5173C90011EB0C0C43F1000326
:102AD000990200234FEA8C2041EA9C51FDF780FBCC
:102AE000D3E7034800E0034808BD00BF00380240B8
:102AF00040787D010024F400002800F09B8070B530
:102B00000D4604464F4B1B6803F007038B4208D267
:102B1000CBB24C4A1370136803F007038B4240F0AA
:102B20008B80236813F0020F17D013F0040F04D02A
:102B3000454A936843F4E0539360236813F0080F09
:102B400004D0414A936843F4604393603E4A9368DB
:102B500023F0F003A1680B439360236813F0010F87
:102B600032D06368012B21D09A1E012A25D9364A1A
:102B7000126812F0020F61D033498A6822F0030212
:102B800013438B60FFF7DAFA06462F4B9B6803F07E
:102B90000C036268B3EB820F16D0FFF7CFFA801BED
:102BA00041F288339842F0D9032042E0264A126865
:102BB00012F4003FE0D101203BE0234A126812F0FA
:102BC000007FD9D1012034E01E4B1B6803F00703BE
:102BD000AB4207D9EAB21B4B1A701B6803F007031C
:102BE000AB422DD1236813F0040F06D0164A936828
:102BF00023F4E053E1680B439360236813F0080F5C
:102C000007D0114A936823F46043216943EAC10362
:102C10009360FFF71FFF0C4B9B68C3F303130B4A32
:102C2000D35CD8400A4B18600A4B186801F0E6FFE5
:102C3000002070BD012070470120FAE70120F8E76D
:102C40000120F6E7003C0240003802402459000809
:102C5000100000200C000020014B1868704700BFD6
:102C60001000002008B5FFF7F7FF044B9B68C3F383
:102C70008223034AD35CD84008BD00BF003802401D
:102C80003459000808B5FFF7E7FF044B9B68C3F30E
:102C90004233034AD35CD84008BD00BF003802402D
:102CA000345900080F2303600B4B9A6802F00302AB
:102CB00042609A6802F0F00282609A6802F4E05280
:102CC000C2609B68DB0803F4E0530361034B1B689D
:102CD00003F007030B60704700380240003C0240DD
:102CE00070B4036A026A22F00102026246688269D5
:102CF00022F073020C6844EA020523F002028B689A
:102D000013430D4CA04209D00B4CA0420DD046609D
:102D100085614A684263036270BC704723F0080310
:102D2000CA68134323F00403EEE726F440764A69A9
:102D300032438E691643EAE70000014030B4036A6B
:102D4000026A22F4807202624568C26922F073024C
:102D50000C68224323F400738C6843EA04230F4C6D
:102D6000A04209D00D4CA0420ED04560C2614A6815
:102D7000C263036230BC704723F40063CC6843EA4B
:102D8000042323F48063EDE725F440554C6945EABC
:102D900004158C6945EA0415E7E700BF000001400F
:102DA00030B4036A026A22F4805202624468C26943
:102DB00022F4E6420D6842EA052223F400538D68AE
:102DC00043EA0533074DA84206D04460C2614A6811
:102DD0000264036230BC704724F480444D6944EAC5
:102DE0008514F2E70000014010B4036A046A24F07D
:102DF00001040462846924F0F00C4CEA021223F00E
:102E00000A030B43826103625DF8044B704710B400
:102E1000036A046A24F010040462846924F4704C88
:102E20004CEA023223F0A00343EA011382610362F9
:102E30005DF8044B7047836823F070030B4343F045
:102E4000070383607047000090F83D30DBB2012B30
:102E50002FD1022380F83D300268D36843F001038C
:102E6000D3600368154A934218D0B3F1804F15D050
:102E7000A2F57C42934211D002F5806293420DD0BC
:102E800002F58062934209D002F59A32934205D04E
:102E90001A6842F001021A60002070479A6802F036
:102EA0000702062A07D01A6842F001021A600020C1
:102EB0007047012070470020704700BF00000140AC
:102EC000704770477047704770B504460368DE6806
:102ED0001D6915F0020F10D016F0020F0DD06FF023
:102EE00002021A610123037703689B6913F0030F41
:102EF0005ED0FFF7E7FF0023237715F0040F12D011
:102F000016F0040F0FD023686FF004021A61022339
:102F1000237723689B6913F4407F4FD02046FFF747
:102F2000D1FF0023237715F0080F12D016F0080FF9
:102F30000FD023686FF008021A61042323772368F7
:102F4000DB6913F0030F40D02046FFF7BBFF0023DF
:102F5000237715F0100F12D016F0100F0FD0236842
:102F60006FF010021A61082323772368DB6913F4DA
:102F7000407F31D02046FFF7A5FF0023237715F0CF
:102F8000010F02D016F0010F2DD115F0800F02D0E5
:102F900016F0800F2FD115F0400F02D016F0400F21
:102FA00031D115F0200F02D016F0200F33D170BDB3
:102FB000FFF787FF204601F0B3FA9CE72046FFF7B2
:102FC00080FF204601F0ACFAABE72046FFF779FF1F
:102FD000204601F0A5FABAE72046FFF772FF204627
:102FE00001F09EFAC9E723686FF001021A612046DA
:102FF00001F014FDC9E723686FF080021A612046D2
:1030000000F0ACFBC7E723686FF040021A6120466E
:10301000FFF759FFC5E723686FF020021A612046C9
:1030200000F09BFBC3E700000368294A90420ED0E2
:10303000B0F1804F0BD0A2F57C42904207D002F550
:103040008062904203D002F58062904203D123F067
:1030500070034A6813431E4A90421AD0B0F1804F61
:1030600017D0A2F57C42904213D002F580629042C4
:103070000FD002F5806290420BD002F59A32904256
:1030800007D002F58062904203D002F58062904240
:1030900003D123F44073CA68134323F080034A69C1
:1030A000134303608B68C3620B688362084B9842CA
:1030B0000AD001234361036913F0010F03D00369B0
:1030C00023F00103036170470B690363F1E700BF5D
:1030D0000000014040B310B5044690F83D30F3B114
:1030E000022384F83D30214651F8040BFFF79CFF82
:1030F000012384F8463084F83E3084F83F3084F869
:10310000403084F8413084F8423084F8433084F809
:10311000443084F8453084F83D30002010BD80F8FC
:103120003C3001F045FEDBE70120704740B310B5AD
:10313000044690F83D30F3B1022384F83D30214637
:1031400051F8040BFFF770FF012384F8463084F830
:103150003E3084F83F3084F8403084F8413084F8C1
:10316000423084F8433084F8443084F8453084F8A1
:103170003D30002010BD80F83C30FFF7A1FEDBE7BA
:103180000120704730B4036A026A22F01002026222
:103190004468826922F4E6420D6842EA052223F07F
:1031A00020038D6843EA05130E4DA84209D00D4D4A
:1031B000A8420ED0446082614A688263036230BCD8
:1031C000704723F08003CD6843EA051323F04003E2
:1031D000EDE724F440644D6944EA85048D6944EACE
:1031E0008504E7E70000014038B590F83C30012B3A
:1031F00066D004460D46012380F83C300C2A5AD88C
:10320000DFE802F0075959591B5959593059595992
:1032100044000068FFF764FD2268936943F00803E7
:1032200093612268936923F0040393612268936990
:1032300029690B43936100203EE00068FFF7A2FF7D
:103240002268936943F4006393612268936923F4CD
:103250008063936122689369296943EA012393613A
:10326000002029E00068FFF769FD2268D36943F078
:103270000803D3612268D36923F00403D361226871
:10328000D36929690B43D361002015E00068FFF77B
:1032900087FD2268D36943F40063D3612268D36950
:1032A00023F48063D3612268D369296943EA012347
:1032B000D361002000E00120002384F83C3038BDB9
:1032C0000220FCE710B4846824F47F4C42EA032215
:1032D0000A4342EA0C0282605DF8044B704790F8A2
:1032E0003C30012B78D010B50446012380F83C30E7
:1032F000022380F83D300268936823F47F4323F073
:10330000770393600B68602B4CD029D8402B54D0A6
:103310000CD9502B22D1CA6849680068FFF764FDB8
:1033200050212068FFF787FD002005E0202B0DD0FD
:1033300009D9302B0AD00120012384F83D30002325
:1033400084F83C3010BD0BB1102B05D11946206814
:10335000FFF771FD0020EFE70120EDE70120EBE72B
:10336000B3F5805F34D0B3F5005F0CD1CB684A6809
:1033700089680068FFF7A6FF2268936843F48043DA
:1033800093600020D8E7702B24D1CB684A68896805
:103390000068FFF797FF2268936843F07703936014
:1033A0000020C9E7CA6849680068FFF730FD60215E
:1033B0002068FFF740FD0020BEE7CA684968006842
:1033C000FFF712FD40212068FFF735FD0020B3E72D
:1033D0000020B1E70120AFE70220704701F01F0194
:1033E000012303FA01FC036A23EA0C030362036A64
:1033F00002FA01F10B4303627047000038B504463E
:103400000D4600220068FFF7E9FF23681B4A93423C
:1034100014D02368196A41F21112114208D1196AB5
:1034200040F24442114203D11A6822F001021A60AC
:103430009DB9012384F83E30002038BD196A41F25D
:1034400011121142E5D1196A40F244421142E0D111
:103450005A6C22F400425A64DBE7042D05D0082D93
:1034600007D0012384F84130E6E7012384F83F3098
:10347000E2E7012384F84030DEE700BF00000140AE
:1034800010B504460846C1B994F83E30DBB2013BA2
:1034900018BF0123002B40F0868038BB022384F83C
:1034A0003E300C2800F28180DFE800F0307F7F7F23
:1034B0005B7F7F7F617F7F7F6700042908D00829B9
:1034C0000DD094F84130DBB2013B18BF0123E1E796
:1034D00094F83F30DBB2013B18BF0123DAE794F8E0
:1034E0004030DBB2013B18BF0123D3E7042805D0ED
:1034F000082807D0022384F84130D2E7022384F859
:103500003F30CEE7022384F84030CAE72268D36810
:1035100043F00203D360012201462068FFF75EFFFB
:103520002368244A93422ED02368224A93422FD004
:10353000B3F1804F2CD0A2F57C42934228D002F503
:103540008062934224D002F58062934220D002F53B
:103550009A3293421CD01A6842F001021A6000208D
:1035600024E02268D36843F00403D360D3E72268E1
:10357000D36843F00803D360CDE72268D36843F0F3
:103580001003D360C7E75A6C42F400425A64CBE799
:103590009A6802F00702062A09D01A6842F001026E
:1035A0001A60002002E0012000E0012010BD002090
:1035B000FCE700BF0000014038B505460C460C2969
:1035C0005FD8DFE801F0075E5E5E2A5E5E5E305E19
:1035D0005E5E36000268D36823F00203D3600022E7
:1035E00021462868FFF7FAFE2B68274A934226D027
:1035F0002B68196A41F21112114208D1196A40F27E
:103600004442114203D11A6822F001021A602CBB15
:10361000012385F83E30002034E00268D36823F0AF
:103620000403D360DBE70268D36823F00803D360A8
:10363000D5E70268D36823F01003D360CFE7196A97
:1036400041F211121142D3D1196A40F2444211429F
:10365000CED15A6C22F400425A64C9E7042C06D039
:10366000082C09D0012385F8413000200AE001230D
:1036700085F83F30002005E0012385F84030002028
:1036800000E0012038BD00BF0000014090F83C3050
:10369000012B35D010B4012380F83C30022380F890
:1036A0003D3003685A689C6822F0700C0A6842EA50
:1036B0000C025A600368134A934212D0B3F1804F50
:1036C0000FD0A2F57C4293420BD002F58062934268
:1036D00007D002F58062934203D002F59A329342FA
:1036E00004D124F080044A6814439C60012380F8CC
:1036F0003D30002380F83C3018465DF8044B70479D
:10370000022070470000014090F83C30012B22D08D
:10371000012380F83C30CB6823F440738A6813435C
:1037200023F480634A68134323F400630A68134355
:1037300023F480530A69134323F400534A69134363
:1037400023F48043CA69134302685364002380F85A
:103750003C30184670470220704770477047026837
:1037600002F10C0353E8003F23F490730C3242E85B
:1037700000310029F3D1026802F1140353E8003F3D
:1037800023F00103143242E800310029F3D1036B26
:10379000012B05D0202380F84230002303637047BB
:1037A000026802F10C0353E8003F23F010030C32CF
:1037B00042E800310029F3D1ECE790F84130DBB268
:1037C000212B01D0022070478368B3F5805F17D0AA
:1037D000036A5A1C02621A7803685A60C38C9BB24F
:1037E000013B9BB2C3844BB90268D36823F08003CA
:1037F000D3600268D36843F04003D3600020704771
:103800000369002BE4D1036A1B880268C3F3080331
:103810005360036A02330362E0E7000038B50446F0
:103820000268136923F44053C1680B431361836832
:103830000269134342691343C2691A430168CB68A2
:1038400023F4164323F00C031343CB60026853693F
:1038500023F4407381690B4353610368314A9342F7
:1038600006D002F58062934202D0FFF7FBF901E037
:10387000FFF708FAE369B3F5004F29D000210318D8
:1038800049411B1841F10001C90041EA5371DB00B5
:10389000181863684FEA83024FEA937341F10001FD
:1038A000FCF79EFC204DA5FB00325109642303FB6D
:1038B00011031B013233A5FB03235B0903F0F00264
:1038C00002EB011203F00F03216813448B6038BD33
:1038D0000023021843EB0301121841F10001C90053
:1038E00041EA5271D200101841F100016268921849
:1038F0005B41FCF775FC0C4DA5FB003251096423BC
:1039000003FB1103DB003233A5FB03235B095A00E1
:1039100002F4F87202EB011203F00703216813446A
:103920008B60D4E7001001401F85EB512DE9F04377
:1039300083B005460E4617469946DDF828802C6868
:10394000246836EA04030CBF4FF0010C4FF0000C62
:10395000BC4528D1B8F1FF3FF1D0FEF7EFFBA0EB5B
:103960000900404523D8B8F1000F22D02B68DA684F
:1039700012F0040FE3D0802EE1D0402EDFD01A6881
:1039800012F0080FDBD0002401941A6801925B68E2
:103990000193019B2846FFF7E2FE08236B6485F83C
:1039A0004040012000E0002003B0BDE8F083032088
:1039B000FAE70320F8E760B310B5044690F8413009
:1039C00013B3242384F841302268D36823F40053CE
:1039D000D3602046FFF722FF2268136923F4904347
:1039E00013612268536923F02A0353612268D36864
:1039F00043F40053D36000206064202384F84130F6
:103A000084F84230606310BD80F8403001F0B2FDB0
:103A1000D7E7012070472DE9F04182B01E4690F8AB
:103A20004130DBB2202B56D104460D46904600298A
:103A300055D00AB901204FE000234364212380F8C8
:103A40004130FEF77BFB0746A4F82480A4F82680CB
:103A5000A368B3F5805F02D04FF0000814E023693B
:103A60002BB34FF000080FE0202384F841300320EF
:103A700032E038F8023B2268C3F308035360E28C5B
:103A800092B2013A92B2E284E38C9BB293B1009677
:103A90003B46002280212046FFF748FF0028E3D163
:103AA000002DE6D015F8012B23685A60E7E7A846F9
:103AB0000025E9E700963B46002240212046FFF71B
:103AC00035FF18B9202384F8413005E0202384F81D
:103AD0004130032000E0022002B0BDE8F081012067
:103AE000FAE7704708B50168CA6822F04002CA6068
:103AF000202280F84120FFF7F4FF002008BD704726
:103B000008B5806B0023C385C384FFF7F8FF08BDA9
:103B1000704790F84230DBB2222B69D18368B3F54D
:103B2000805F4FD0826AB3F5805F04D0002B56D1FE
:103B30000369002B53D103685B681370836A0133F8
:103B40008362C38D9BB2013B9BB2C385002B51D1D5
:103B500000B583B00268D36823F02003D360026805
:103B6000D36823F48073D3600268536923F00103A0
:103B70005361202380F8423000234363036B012B01
:103B800033D100230363026802F10C0353E8003FC2
:103B900023F010030C3242E800310029F3D103680E
:103BA0001A6812F0100F06D0002201921A680192D2
:103BB0005B680193019B818DFFF7AAFF002003B092
:103BC0005DF804FB0269002AACD1826A03685B6875
:103BD000C3F308031380836A02338362B1E7036887
:103BE0005B6803F07F031370A8E700F0D9FDE5E7F9
:103BF000022070470020704730B583B00446026849
:103C00001368D068516913F00F0505D113F0200F28
:103C100002D010F0200F19D12DB111F0010119D1EE
:103C200010F4907F16D1216B01297DD013F0800F05
:103C300003D010F0800F40F0198113F0400F03D033
:103C400010F0400F40F0168103B030BD2046FFF762
:103C500060FFF9E713F0010F06D010F4807F03D066
:103C6000626C42F00102626413F0040F04D019B1D7
:103C7000626C42F00202626413F0020F04D019B1C8
:103C8000626C42F00402626413F0080F07D010F077
:103C9000200F00D119B1626C42F008026264626CBC
:103CA000002AD1D013F0200F02D010F0200F29D11C
:103CB00023685B6903F04003626C12F0080F00D1C7
:103CC00063B32046FFF74BFD23685B6913F0400F99
:103CD00020D0226802F1140353E8003F23F0400390
:103CE000143242E800310029F3D1E36B73B1634A27
:103CF0001A65E06BFEF7CAFA0028A5D0E06B036DE9
:103D00009847A1E72046FFF704FFD1E72046FFF7D9
:103D1000F6FE99E72046FFF7F2FE95E72046FFF70B
:103D2000EEFE002363648FE713F0100F3FF47EAFC5
:103D300010F0100F3FF47AAF002301931368019342
:103D400053680193019B536913F0400F52D0E26B0B
:103D500013685B689BB2002B3FF476AFA18D99424C
:103D60007FF672AFE385D369B3F5807F37D02268E1
:103D700002F10C0353E8003F23F480730C3242E855
:103D800000310029F3D1226802F1140353E8003F07
:103D900023F00103143242E800310029F3D12268F4
:103DA00002F1140353E8003F23F04003143242E8C9
:103DB00000310029F3D1202384F84230002323630B
:103DC000226802F10C0353E8003F23F010030C3289
:103DD00042E800310029F3D1E06BFEF70DFA02232F
:103DE0006363A18DE38D9BB2C91A89B22046FFF7A8
:103DF0008FFE29E7A18DE38D9BB2C91A89B2E38DAD
:103E00009BB2002B3FF420AF00293FF41DAF226886
:103E100002F10C0353E8003F23F490730C3242E8A4
:103E200000300028F3D1226802F1140353E8003F68
:103E300023F00103143242E800300028F3D120239C
:103E400084F8423000232363226802F10C0353E814
:103E5000003F23F010030C3242E800300028F3D179
:103E6000022363632046FFF753FEEDE62046FFF78B
:103E7000A4FCE9E62046FFF735FEE5E6013B000835
:103E800081628285C28500234364222380F8423008
:103E9000036923B10268D36843F48073D360026876
:103EA000536943F0010353610268D36843F0200370
:103EB000D3600020704708B590F84230DBB2202B69
:103EC00008D149B10AB9012008BD00230363FFF7F7
:103ED000D7FFF9E70220F7E70120F5E700B583B047
:103EE000064B0193032300930023802204490548D5
:103EF000FDF72CFA03B05DF804FB00BF5C32012033
:103F0000A85800086544000808B540F2E733614A44
:103F1000A2F84630604A126893624FF480615F48AD
:103F2000FEF7A8FA00285ED05A4B002119645C4ABB
:103F3000DA63012283F845205748FFF7A1FA02E02F
:103F40000120FDF7BBFC4FF480615448FEF792FA64
:103F50000028F5D14F4B41F65832DA63012283F83D
:103F6000452000214C48FFF78BFA02E00120FDF7C5
:103F7000A5FC4FF480614948FEF77CFA0028F5D093
:103F8000444B40F6E4421A640021D963012283F8CD
:103F900045204148FFF774FA02E00120FDF78EFC4E
:103FA0003C4B93F84530012BF7D03A4B0021596236
:103FB000012283F82D203B48FFF762FA02E001203E
:103FC000FDF77CFC334B93F82D30012BF7D000210B
:103FD0003448FFF7F1FA344B1868FDF7EDF90A2081
:103FE000FDF76CFC08BD4FF480612C48FEF742FAE7
:103FF0000028F4D1274B0021196441F65832DA63C6
:10400000012283F845202448FFF73AFA02E0012014
:10401000FDF754FC4FF480612048FEF72BFA00288E
:10402000F5D01C4B40F6E4421A640021D96301220A
:1040300083F845201848FFF723FA02E00120FDF736
:104040003DFC144B93F84530012BF7D0114B41F256
:1040500088329A6240F2E732DA8500215962012003
:1040600083F82D000F4803689A62FFF709FA02E00F
:104070000120FDF723FC074B93F82D30012BF7D0DF
:1040800000210848FFF798FA074B1868FDF794F9E4
:10409000A5E700BF08320120BC3401200004024023
:1040A000A8E4FFFF2C3401206C32012010B584B04D
:1040B000FDF744FA03904B4B40F2E7325A8401215A
:1040C0004948FEF7D7F900284CD0464B40F6B832A5
:1040D0009A610021D961012283F8212043480268B6
:1040E0005B8C9362FFF7CCF902E00120FDF7E6FB61
:1040F00001213D48FEF7BEF90028F6D13B4C0021D6
:104100002046FFF759FA374B394A9A61012283F862
:10411000212000212046FFF7B3F902E00120FDF73E
:10412000CDFB01213048FEF7A5F90028F6D000218B
:104130002E48FFF741FA2B4A00239361D3612D4C9F
:1041400001940322009280222B492C48FDF7FEF8AF
:10415000236863B12A4B1868FDF72EF90A20FDF792
:10416000ADFB04E001212048FEF784F928B11421B9
:1041700003A8FDF74BFB04B010BD1A4B214A9A610E
:104180000021D961012283F82120184802685B8C44
:104190009362FFF775F902E00120FDF78FFB012123
:1041A0001148FEF767F90028F6D000210F48FFF705
:1041B00003FA0C4A00239361D3610E4C019403224D
:1041C000009280220C490D48FDF7C0F82368002BAF
:1041D000CDD00B4B1868FDF7EFF80A20FDF76EFB0A
:1041E000C5E700BF0832012000040240E43301208B
:1041F00018FCFFFF64320120BC5800080942000887
:1042000060320120B0B9FFFF10B584B0FDF796F918
:104210000390494B40F2E732DA8502214748FEF726
:1042200029F9002849D0444B44F250625A620021D7
:104230009962012283F82D2041480268DB8D936248
:10424000FFF71EF902E00120FDF738FB02213B4891
:10425000FEF710F90028F6D1394C00212046FFF76F
:10426000ABF9354B374A5A62012283F82D200021E1
:104270002046FFF705F902E00120FDF71FFB0221B0
:104280002E48FEF7F7F80028F6D000212C48FFF75B
:1042900093F9294A0023536293622B4C0194032221
:1042A0000092802229492A48FDF750F823684BB133
:1042B000284B1868FDF780F804E002211F48FEF73C
:1042C000D9F828B1142103A8FDF7A0FA04B010BD55
:1042D000194B00219962204A5A62012283F82D204D
:1042E00017480268DB8D9362FFF7CAF802E00120ED
:1042F000FDF7E4FA02211148FEF7BCF80028F6D0D9
:1043000000210F48FFF758F90B4A002353629362CC
:104310000D4C01940322009280220C490C48FDF7B9
:1043200015F82368002BCDD00A4B1868FDF744F828
:104330000A20FDF7C3FAC5E7083201200004024055
:104340002C340120B0B9FFFF68320120D05800089A
:104350005D4300086432012080C1FFFF00B585B0D5
:10436000FDF7ECF80390374B41F288325A62012294
:1043700083F82D2034480268DB8D93620021FFF71B
:104380007FF802E00120FDF799FA2E4B93F82D30CB
:10439000012BF7D004212D48FEF76CF830B10A212B
:1043A00003A8FDF733FA05B05DF804FB254B0021A7
:1043B000596343F698221A6340F2E7325A87012084
:1043C00083F83900224803689A62FFF759F802E03F
:1043D0000A20FDF773FA04211C48FEF74BF8002869
:1043E000F6D0184B42F2F0325A6300221A630122CF
:1043F00083F8392002E00120FDF760FA114B93F8B1
:104400003930012BF7D000211148FFF7D5F8114BB7
:10441000019303230093002380220F490F48FCF7E8
:1044200095FF02E00120FDF749FA0A4B1B68002BBB
:10443000F8D00B4B1868FCF7BFFF0A20FDF73EFAD7
:10444000ADE700BF083201202C34012000040240F7
:10445000743401206C320120E4580008093F000840
:1044600068320120F0B583B0264B00241C6147F26E
:104470003052DA6040F2E732DA8205E080212248E9
:10448000FDF7F8FF98B924BB80211F48FDF7F2FF24
:104490000028F3D1002CF1D11A4B01225A751B4888
:1044A0000268DB8A93620021FEF7EAFFEBE7154E14
:1044B00000257575154F29463846FEF79FFF44F2D3
:1044C0005C433361F5600124747529463846FEF774
:1044D000D7FF0C4B5B7D002BD6D10D4D01950323EF
:1044E0000093002380220B490B48FCF72FFF2B6819
:1044F000002BC9D0094B1868FCF75EFF1420FDF7AC
:10450000DDF9C1E7083201200000024054330120E8
:1045100060320120F8580008AD4000085C320120EC
:1045200008B50368904A93422BD0B3F1804F52D024
:104530008E4A93427AD08E4A934200F0A2808D4AEE
:10454000934200F0CD808C4A93421ED18B4B93F85E
:104550005130012B19D1894BDA6C9B6C9A4200F0D7
:10456000EE809A42C0F2F4809A420EDD01224FF4AE
:1045700080418348FDF785FF804AD36C013BD364BB
:1045800003E07E4B5B7D012B00D008BD7B4B1A699D
:10459000DB689A420DD09A4213DB9A42F5DD002285
:1045A00020217748FDF76DFF744A1369013B1361C1
:1045B000EBE700217348FEF7FFFF704B00225A75AE
:1045C000E3E7012220216E48FDF75BFF6B4A136988
:1045D00001331361D9E7694B93F82130012BD4D112
:1045E000664BDA699B699A420DD09A4214DB9A4273
:1045F000CBDD002210216248FDF743FF5F4AD369FB
:10460000013BD361C1E700215F48FEF7D5FF5B4B5B
:10461000002283F82120B8E7012210215848FDF735
:1046200030FF564AD3690133D361AEE7534B93F859
:104630002D30012BA9D1514B9A6A5B6A9A420DD059
:104640009A4214DB9A42A0DD012208214C48FDF772
:1046500018FF4A4A936A013B936296E700214B4850
:10466000FEF7AAFF454B002283F82D208DE700229C
:1046700008214348FDF705FF404A936A01339362DE
:1046800083E73E4B93F83930012B7FF47EAF3B4BF1
:104690005A6B1B6B9A420FD09A4216DB9A427FF7F5
:1046A00074AF00224FF400413948FDF7EAFE334A67
:1046B000536B013B536368E700213648FEF77CFFEC
:1046C0002E4B002283F839205FE701224FF400418E
:1046D0002F48FDF7D6FE294A536B0133536354E745
:1046E000264B93F84530012B7FF44FAF234B1A6CC8
:1046F000DB6B9A420FD09A4216DB9A427FF745AFA6
:1047000000224FF400411E48FDF7BBFE1B4A136C0C
:10471000013B136439E700211F48FEF74DFF174B9B
:10472000002283F8452030E701224FF4004114486D
:10473000FDF7A7FE114A136C0133136425E700212E
:104740001648FEF739FF0D4B002283F851201CE775
:1047500000224FF480410A48FDF793FE074AD36CCC
:104760000133D36411E700BF0000014000040040A2
:1047700000080040000C00400040014008320120C9
:104780000004024054330120E43301202C34012082
:104790000000024074340120BC34012004350120A3
:1047A00002681E4B9A4200D0704730B583B01C4B54
:1047B00019684A1C1A601B4B1B781B484354582B22
:1047C00008D0332A20D0012216491848FFF773FB7E
:1047D00003B030BD164D01950024009403232146FB
:1047E00014480068FDF7FCF90D4B1C602B68002B8A
:1047F000E9D04FF0E0234FF08052C3F8042DBFF30F
:104800004F8FBFF36F8FDEE732220021064800F0A2
:1048100071FF034B00221A60D5E700BF0010014072
:10482000743201207C320120803201204C3501207D
:1048300078320120703201202DE9F0418AB0002445
:10484000059406940794089409940194444B1A6BB8
:1048500042F004021A631A6B02F004020192019AF8
:1048600002941A6B42F080021A631A6B02F0800203
:104870000292029A03941A6B42F001021A631A6BB5
:1048800002F001020392039A04941A6B42F00202AE
:104890001A631B6B03F002030493049BDFF8CC80C4
:1048A00022464FF400514046FDF7EBFD2D4E2246C7
:1048B00048F21A013046FDF7E4FD2B4F22464FF235
:1048C000B8013846FDF7DDFD4FF40053059301258F
:1048D00006950794089405A94046FDF7EBFC1A23BA
:1048E000059306954FF00208CDF81C80089405A9A1
:1048F0003046FDF7DFFC802305930694CDF81C803D
:1049000005A93046FDF7D6FC40F20743059306940F
:10491000CDF81C8005A93846FDF7CCFC4FF4425376
:1049200005930695CDF81C80089405A93846FDF737
:10493000C1FC4CF23803059306950794089405A929
:104940003846FDF7B7FC4FF40043059306950794EE
:10495000089405A93046FDF7ADFC0AB0BDE8F0812A
:1049600000380240000002400004024000080240FB
:1049700008B50B480B4B03600B4B4360002383606F
:10498000C3604FF48042026143618361C36103628B
:10499000FDF786FD00B908BD00F06EF8FBE700BF2B
:1049A000B432012000540040801A060030B589B0AE
:1049B0000023039304930593069307930268144B13
:1049C0009A4201D009B030BD00250195114C236BEE
:1049D00043F002032363236B03F002030193019B63
:1049E0004FF4407303931223049303230693042389
:1049F000079303A90848FDF75DFC0295236C43F477
:104A000000132364236C03F400130293029BD9E781
:104A100000540040003802400004024008B503681A
:104A2000104A934203D0104A934203D008BDFDF7C9
:104A300079FBFBE70D4A1368013313600C4981FBD6
:104A40000321DA17C2EB6112642101FB1232002A42
:104A5000ECD14FF400510748FDF719FD034B00223C
:104A60001A60E3E700480140004401400833012098
:104A70001F85EB510008024072B6FEE700B595B005
:104A80003022002108A800F035FE00230393049390
:104A900005930693079301931E4A116C41F08051D0
:104AA0001164126C02F080520192019A02931A4A28
:104AB000116841F440411160126802F440420292D0
:104AC000029A0222089201210B9110210C910E9260
:104AD0000F930823109364231193129204231393CA
:104AE00008A8FDF7BBFD88B90F23039302230493A5
:104AF000002305934FF4805206920793032103A8E5
:104B0000FDF7FAFF20B915B05DF804FBFFF7B4FF1D
:104B1000FFF7B2FF003802400070004008B5FDF713
:104B2000E7FAFFF7ABFFFFF787FEFFF721FF00F083
:104B3000EDFC00F0F1FB00F041FB00F0CBFA00F0DF
:104B400093FB00F041FC00F097FC00F0F9FC00F052
:104B500017F9FFF7C3F91548FEF776F9144C01224F
:104B600014492046FFF7A7F9134D4FF0FF330A22EF
:104B700029462046FEF74FFF104E4FF0FF330A2222
:104B800029463046FEF747FFFCF78AFC0C4D4FF0F4
:104B9000FF330A2229463046FEF73DFF4FF0FF3330
:104BA0000A2229462046FEF736FFFEE79C33012005
:104BB0004C3501207C3201200C590008943501202D
:104BC0001859000882B0002100910B4B5A6C42F436
:104BD00080425A645A6C02F480420092009A019119
:104BE0001A6C42F080521A641B6C03F080530193DC
:104BF000019B02B0704700BF0038024030B589B059
:104C00000546002401941E4B5A6C42F480225A64DB
:104C10005B6C03F480230193019B02A903A8FEF7B8
:104C200041F8FEF72FF803461648A0FB03239B0C20
:104C3000013B1548154A026040F2E732C26043600A
:104C4000046184608461FEF745FA044610B1204691
:104C500009B030BD0C48FEF7F7F804460028F6D13D
:104C60001A20FDF7BBFA0F2D01D90124EFE700222E
:104C700029461A20FDF77AFA054B1D60E7E700BFC9
:104C80000038024083DE1B430C3301200048014002
:104C90000C000020FEE77047FEE7FEE7FEE77047E6
:104CA00008B5FCF78DFF012800D108BDFBF7A2FE77
:104CB000FBE7000008B50348FEF706F90248FEF7D7
:104CC00003F908BD543301200435012008B5034819
:104CD000FEF7FAF80248FEF7F7F808BD5433012052
:104CE0009C33012008B50348FEF7EEF80248FEF7B2
:104CF000EBF808BD543301200C33012008B50248FD
:104D0000FEF7E2F808BD00BF5433012008B50248A1
:104D1000FEF7DAF808BD00BFE433012008B5024809
:104D2000FEF7D2F808BD00BF2C34012008B50248B8
:104D3000FEF7CAF808BD00BF7434012008B5024868
:104D4000FEF75AFF08BD00BF4C35012008B50248E8
:104D5000FEF7BAF808BD00BFBC34012008B5024810
:104D6000FEF74AFF08BD00BF94350120034AD2F880
:104D7000883043F47003C2F88830704700ED00E0DB
:104D800008B50948094B036063234360002383602F
:104D900040F2E732C26003618361FEF79BF900B91C
:104DA00008BDFFF769FEFBE79C330120004401408A
:104DB00010B588B003685F4A934215D0B3F1804FB5
:104DC0003FD05D4A934251D05C4A934262D05C4AE4
:104DD000934273D05B4A934200F084805A4A9342D4
:104DE00000F0948008B010BD00240194574B5A6C19
:104DF00042F001025A645B6C03F001030193019BD2
:104E0000224606211820FDF7B1F91820FDF7E6F932
:104E1000224606211920FDF7A9F91920FDF7DEF930
:104E2000224621461A20FDF7A1F91A20FDF7D6F9EE
:104E3000224606211B20FDF799F91B20FDF7CEF92C
:104E4000D0E70022029203F50E33196C41F0010104
:104E500019641B6C03F001030293029B06211C20C2
:104E6000FDF784F91C20FDF7B9F9BBE70022039296
:104E7000364B196C41F0020119641B6C03F00203FC
:104E80000393039B06211D20FDF770F91D20FDF7FC
:104E9000A5F9A7E7002204922C4B196C41F00401FC
:104EA00019641B6C03F004030493049B06211E2069
:104EB000FDF75CF91E20FDF791F993E700220592BA
:104EC000224B196C41F0080119641B6C03F00803B4
:104ED0000593059B06213220FDF748F93220FDF7A6
:104EE0007DF97FE700220692184B596C41F480311E
:104EF00059645B6C03F480330693069B06211820EB
:104F0000FDF734F91820FDF769F96BE700220792E5
:104F10000E4B596C41F4003159645B6C03F400335F
:104F20000793079B06211920FDF720F91920FDF7AB
:104F300055F957E700000140000400400008004018
:104F4000000C004000400140004401400038024095
:104F500000B58DB000230793089309930A930B9330
:104F60000368544A934211D0B3F1804F28D0524A7B
:104F700093423ED0514A934253D0514A934268D013
:104F8000504A93427ED00DB05DF804FB002301939C
:104F90004D4B1A6B42F001021A631B6B03F00103C5
:104FA0000193019B4FF4807307930223089303231B
:104FB0000A9301230B9307A94448FDF77BF9E2E725
:104FC00000230293404B1A6B42F001021A631B6BE1
:104FD00003F001030293029B20230793022308930B
:104FE00003230A9301230B9307A93848FDF762F9BD
:104FF000C9E700230393344B1A6B42F001021A6392
:105000001B6B03F001030393039B402307930223CD
:10501000089303220A920B9307A92C48FDF74AF93B
:10502000B1E700230493284B1A6B42F002021A6383
:105030001B6B03F002030493049B4023079302239A
:10504000089303220A920B9307A92148FDF732F92E
:1050500099E7002305931C4B1A6B42F001021A6377
:105060001B6B03F001030593059B012207920223AA
:105070000893099203220A920B9307A91348FDF79C
:1050800019F980E7002306930F4B1A6B42F00102D7
:105090001A631B6B03F001030693069B042307931B
:1050A0000223089303230A930B9307A90748FDF7EC
:1050B00001F968E7000001400004004000080040DA
:1050C000000C004000400140003802400000024057
:1050D0000004024010B596B0002412941394149466
:1050E00015941094119409940A940B940C940D94B3
:1050F0000E940F942022214601A800F0FBFA2D48BF
:105100002D4B036040F2E733436084606323C36048
:10511000046144618461FDF7DDFF002838D14FF45C
:105120008053129312A92348FEF7D9F8002832D1F0
:105130002048FDF7FBFF002830D100231093119386
:1051400010A91C48FEF7A2FA58BB6023099331232B
:105150000A9300220B920C920D920E920F9209A9C3
:105160001448FEF741F8F8B9002301930293039322
:10517000049305934FF400520692089301A90D4839
:10518000FEF7C2FA98B90B48FFF7E2FE16B010BD61
:10519000FFF772FCC3E7FFF76FFCC9E7FFF76CFC92
:1051A000CBE7FFF769FCD0E7FFF766FCDCE7FFF72A
:1051B00063FCE8E7543301200000014000B58FB0E4
:1051C00000230A930B930C930D9308930993019377
:1051D00002930393049305930693079321484FF09A
:1051E0008042026040F2E732426083606322C26024
:1051F00003618361FDF76EFF28BB4FF480530A9370
:105200000AA91848FEF76BF800BB1648FDF78EFF99
:10521000F8B900230893099308A91248FEF736FA53
:10522000D0B96023019331230293002203920592A7
:1052300001A90C48FDF7D8FF88B90A48FFF788FE96
:105240000FB05DF804FBFFF717FCD6E7FFF714FC7F
:10525000DBE7FFF711FCDCE7FFF70EFCE1E7FFF708
:105260000BFCEAE7E433012000B58FB000230A937A
:105270000B930C930D93089309930193029303935B
:1052800004930593069307932148224A026040F253
:10529000E732426083606322C26003618361FDF78D
:1052A00019FF28BB4FF480530A930AA91848FEF748
:1052B00016F800BB1648FDF739FFF8B9002308932C
:1052C000099308A91248FEF7E1F9D0B960230193C8
:1052D0003123029300220392059201A90C48FDF7A5
:1052E00083FF88B90A48FFF733FE0FB05DF804FB6F
:1052F000FFF7C2FBD6E7FFF7BFFBDBE7FFF7BCFB1F
:10530000DCE7FFF7B9FBE1E7FFF7B6FBEAE700BF31
:105310002C3401200004004000B58FB000230A9314
:105320000B930C930D9308930993019302930393AA
:1053300004930593069307932148224A026040F2A2
:10534000E732426083606322C26003618361FDF7DC
:10535000C1FE28BB4FF480530A930AA91848FDF7F1
:10536000BEFF00BB1648FDF7E1FEF8B90023089325
:10537000099308A91248FEF789F9D0B9602301936F
:105380003123029300220392059201A90C48FDF7F4
:105390002BFF88B90A48FFF7DBFD0FB05DF804FB6F
:1053A000FFF76AFBD6E7FFF767FBDBE7FFF764FB76
:1053B000DCE7FFF761FBE1E7FFF75EFBEAE700BF31
:1053C000743401200008004000B58FB000230A9318
:1053D0000B930C930D9308930993019302930393FA
:1053E00004930593069307932148224A026040F2F2
:1053F000E732426083606322C26003618361FDF72C
:1054000069FE28BB4FF480530A930AA91848FDF798
:1054100066FF00BB1648FDF789FEF8B90023089324
:10542000099308A91248FEF731F9D0B96023019316
:105430003123029300220392059201A90C48FDF743
:10544000D3FE88B90A48FFF783FD0FB05DF804FB6F
:10545000FFF712FBD6E7FFF70FFBDBE7FFF70CFBCD
:10546000DCE7FFF709FBE1E7FFF706FBEAE700BF30
:10547000BC340120000C004000B58DB0002308931F
:1054800009930A930B930193029303930493059357
:10549000069307931B481C4A026040F2E7324260C1
:1054A00083606322C26003618361FDF713FEE8B984
:1054B0004FF48053089308A91248FDF710FFC0B9B4
:1054C0001048FDF733FEB8B96023019331230293EE
:1054D00000220392059201A90A48FDF785FE70B9E2
:1054E0000848FFF735FD0DB05DF804FBFFF7C4FA7F
:1054F000DEE7FFF7C1FAE3E7FFF7BEFAE4E7FFF7FD
:10550000BBFAEDE7043501200040014008B50A4828
:105510000A4B03604FF4E133436000238360C360B0
:1055200003610C2242618361C361FEF744FA00B952
:1055300008BDFFF7A1FAFBE74C3501200010014040
:1055400008B50A480A4B03604FF4E1334360002377
:105550008360C36003610C2242618361C361FEF713
:105560002AFA00B908BDFFF787FAFBE79435012056
:105570000014014010B58AB00023059306930793E9
:10558000089309930368304A934204D02F4A934208
:105590002DD00AB010BD002401942D4B5A6C42F05E
:1055A00010025A645A6C02F010020192019A02949D
:1055B0001A6B42F001021A631B6B03F001030293A2
:1055C000029B4FF4C06305930223069303230893C1
:1055D0000723099305A91F48FCF76CFE2246062104
:1055E0002520FCF7C3FD2520FCF7F8FDD1E70024BA
:1055F0000394174B5A6C42F020025A645A6C02F022
:1056000020020392039A04941A6B42F001021A6377
:105610001B6B03F001030493049B4FF4C0530593E9
:1056200002230693032308930823099305A9094835
:10563000FCF740FE224606214720FCF797FD472055
:10564000FCF7CCFDA5E700BF0010014000140140AD
:105650000038024000000240DFF834D0FFF786FB3C
:105660000C480D490D4A002302E0D458C4500433BD
:10567000C4188C42F9D30A4A0A4C002301E0136093
:105680000432A242FBD300F011F8FFF747FA70474B
:1056900000000220000000204404002054590008AB
:1056A00044040020E0350120FEE7000070B50D4EF7
:1056B0000D4D761BB61006D0002455F8043B01347E
:1056C0009847A642F9D1094E094D761B00F0D4F84F
:1056D000B61006D0002455F8043B01349847A64282
:1056E000F9D170BD485900084859000850590008C0
:1056F00048590008830730B548D0541E002A3FD0CF
:10570000CAB2034601E0013C3AD303F8012B9D07DE
:10571000F9D1032C2DD9CDB245EA05250F2C45EA48
:10572000054536D9A4F1100222F00F0C03F1200E2A
:10573000E6444FEA121C03F1100242E9045542E923
:10574000025510327245F8D10CF1010214F00C0F21
:1057500003EB021204F00F0C13D0ACF1040323F09E
:1057600003030433134442F8045B9342FBD10CF06F
:1057700003042CB1CAB21C4403F8012B9C42FBD198
:1057800030BD64461346002CF4D1F9E703461446B5
:10579000BFE71A46A446E0E7024B13B1024800F007
:1057A00005B8704700000000B95700080023014603
:1057B0001A46184600F01AB838B5084B084D5B1B5E
:1057C0009C1007D0043B1D44013C55F80439984710
:1057D000002CF9D1BDE8384000F054B85459000805
:1057E00050590008704700BF704700BF2DE9F047CF
:1057F000DFF880A00646DAF8000098460F4691468A
:10580000FFF7F0FF1A4B1B68D3F8484124B36568D3
:105810001F2D26DC5EB96B1C0235DAF800006360D0
:1058200044F82570FFF7E0FF0020BDE8F08704EBA7
:1058300085010123C1F88890D4F88821AB401A4330
:10584000022EC4F88821C1F80881E4D1D4F88C2153
:105850001343C4F88C31DEE703F5A674C3F848415E
:10586000D5E7DAF80000FFF7BFFF4FF0FF30DCE7C5
:105870003C59000840040020F8B500BFF8BC08BC43
:105880009E467047F8B500BFF8BC08BC9E467047FE
:1058900049444C4500000000546D72510000000066
:1058A000546D7220537663004D6F746F72315F498F
:1058B0006E69745F5461736B000000004D6F746F0C
:1058C00072335F496E69745F5461736B000000004E
:1058D0004D6F746F72345F496E69745F5461736B9E
:1058E000000000004D6F746F72355F496E69745F20
:1058F0005461736B000000004D6F746F72325F492A
:105900006E69745F5461736B0000000048656C6CD5
:105910006F210D0A000000004572726F72210D0A9E
:10592000000000000000000000000000010203046D
:105930000607080900000000010203041800002007
:08594000D0A8FF7F0100000068
:0859480099570008C501000891
:04595000A1010008A9
:10595400AAAAAAAA04000000010000001000000086
:105964000024F400000000000000000004030020F4
:105974006C030020D403002000000000000000009D
:105984000000000000000000000000000000000013
:105994000000000000000000000000000000000003
:1059A40000000000000000000000000000000000F3
:1059B40000000000000000000000000000000000E3
:1059C40000000000000000000000000000000000D3
:1059D40000000000000000000000000000000000C3
:1059E40000000000000000000000000000000000B3
:1059F40000000000000000000000000000000000A3
:105A04000000000000000000000000000000000092
:105A140001000000000000000E33CDAB34126DE62F
:105A2400ECDE05000B000000000000000000000098
:105A34000000000000000000000000000000000062
:105A44000000000000000000000000000000000052
:105A54000000000000000000000000000000000042
:105A64000000000000000000000000000000000032
:045D9400DC350120D9
:040000050800565940
:00000001FF
